:020000040801F1
:100000003811002011D60108F5D40108EDD40108FB
:10001000EFD40108F1D40108F3D401080000000076
:10002000000000000000000000000000F7D40108FC
:10003000F9D4010800000000FBD40108FDD4010838
:100040003DD6010841D6010845D6010849D6010828
:100050004DD6010851D6010855D6010859D60108D8
:100060005DD6010861D6010865D6010869D6010888
:100070006DD6010871D6010875D6010879D6010838
:100080007DD6010881D6010885D6010889D60108E8
:100090008DD6010891D6010895D6010899D6010898
:1000A0009DD6010805D50108A1D60108A5D60108ED
:1000B00001D501080000000000000000A9D60108D9
:1000C000ADD601080000000000000000B1D6010814
:1000D00000000000B5D60108B9D6010800000000F4
:1000E000BDD60108C1D601080000000000000000D4
:1000F0000000000000000000000000000000000000
:10010000000000000000000000000000C5D601084B
:100110000000000000000000C3360108C9D6010835
:10012000CDD60108D1D60108D5D60108D9D6010807
:10013000DDD6010800000000000000000000000003
:10014000E1D60108E5D60108E9D60108EDD6010897
:10015000F1D60108F5D60108F9D60108FDD6010847
:1001600001D7010805D7010809D7010800000000E0
:100170000DD7010809D501080000000000000000AB
:1001800011D7010815D7010819D70108DFF8301871
:1001900000EB4000085C162801DA002070470920B7
:1001A0007047DFF82008006BC0B27047DFF8140812
:1001B000DFF814180A6BDFF814389A4202D134229F
:1001C00002F034B900210163704700009FED420A3C
:1001D0000C2805DADFF8EC1701EB800090ED000A3F
:1001E000704710B52DED028BB0EE408A002400E080
:1001F000641C2046C0B209280DDA2046C0B2FFF7C1
:10020000E5FFB4EE480AF1EE10FAF1DB2046C0B289
:10021000BDEC028B10BDFF20FAE770B50446022941
:1002200058D12078104201D0072070BD492801D054
:100230003A2801D1002070BD002500E06D1C2E463B
:10024000F6B2162E40D22846C0B2FFF79FFF002814
:10025000F4D12078DFF878172A46D2B202EB4202B6
:10026000895C8142EAD127282ED1607812282BD0D0
:10027000132829D0142827D0152825D0162823D0B4
:10028000172821D018281FD019281DD01A281BD0B4
:100290001B2819D0272817D01C2815D01D2813D0AB
:1002A0001E2811D01F280FD020280DD021280BD0B8
:1002B000222809D0232807D0242805D0252803D0B8
:1002C000262801D0072070BD162E01D3072070BD4F
:1002D000002070BD072070BD00000000152800D967
:1002E000704700B589B0DFE810F0160044007700D1
:1002F0009C00C100E6000B01300155017A01B901F3
:100300001E02370269029B02D301EC01B402D5023E
:100310000D033E030502062940F03C8310EE100A4F
:1003200002F0E4F802460B460FF2287104A802F02E
:1003300001F904AA0021084602F0F5FB0020FFF7AE
:1003400045FF10EE100A02F0D1F8CDE90001DFF808
:100350008406006802F0CAF802460B460FF280617C
:1003600004A802F0E7F804AA0121002002F0DBFB58
:1003700010E3062940F00E8310EE100A02F0B6F8E2
:1003800002460B460FF2CC6104A802F0D3F804AA8F
:100390000021084602F0C7FBDFF83806006802F0CB
:1003A000A5F8CDE90201DFF83006406802F09EF8BA
:1003B000CDE90001DFF82406406802F097F8024614
:1003C0000B460FF22C6104A802F0B4F804AA012134
:1003D000002002F0A8FBDDE2062940F0DB8210EEEF
:1003E000100A02F083F802460B460FF2686104A877
:1003F00002F0A0F804AA0021084602F094FBDFF8FE
:10040000D405006802F072F802460B460FF2F05174
:1004100004A802F08FF804AA0121002002F083FB57
:10042000B8E2062940F0B68210EE100A02F05EF83B
:1004300002460B460FF21C6104A802F07BF804AAE6
:100440000021084602F06FFBDFF88805006802F023
:100450004DF802460B460FF2B45104A802F06AF8B8
:1004600004AA0121002002F05EFB93E2062940F07D
:10047000918210EE100A02F039F802460B460FF294
:10048000D45104A802F056F804AA0021084602F04C
:100490004AFBDFF84005006802F028F802460B46E8
:1004A0000FF2745104A802F045F804AA01210020BB
:1004B00002F039FB6EE2062940F06C8210EE100A61
:1004C00002F014F802460B460FF2885104A802F01D
:1004D00031F804AA0021084602F025FBDFF8F404F5
:1004E000006802F003F802460B460FF2385104A8E8
:1004F00002F020F804AA0121002002F014FB49E2D6
:10050000062940F0478210EE100A01F0EFFF024684
:100510000B460FF2405104A802F00CF804AA002187
:10052000084602F000FBDFF8AC04006801F0DEFFD3
:1005300002460B460FF2F84104A801F0FBFF04AAA3
:100540000121002002F0EFFA24E2062940F0228285
:1005500010EE100A01F0CAFF02460B460FF2F441FA
:1005600004A801F0E7FF04AA0021084602F0DBFA24
:10057000DFF86004006801F0B9FF02460B460FF295
:10058000BC4104A801F0D6FF04AA0121002002F01A
:10059000CAFAFFE1062940F0FD8110EE100A01F0D1
:1005A000A5FF02460B460FF2AC4104A801F0C2FFC2
:1005B00004AA0021084602F0B6FADFF81804006821
:1005C00001F094FF02460B460FF27C4104A801F0B3
:1005D000B1FF04AA0121002002F0A5FADAE10846E1
:1005E000062821D110EE100A01F080FF02460B46CA
:1005F0000FF2604104A801F09DFF04AA0021084603
:1006000002F091FADFF8CC03006801F06FFF0246B8
:100610000B460FF24C4104A801F08CFF04AA012103
:10062000002002F080FAB5E1082940F0B38110EE15
:10063000100A01F05BFF02460B460FF2384104A896
:1006400001F078FF04AA0021084602F06CFA0FF2CC
:100650001C420121002002F066FA9BE1082940F0CB
:10066000998110EE100A01F041FF02460B460FF28D
:10067000044104A801F05EFF04AA0021084602F02C
:1006800052FA0FF2FC320121002002F04CFA81E113
:10069000072940F07F8110EE100A01F027FF024683
:1006A0000B460FF2E43104A801F044FF04AA002134
:1006B000084602F038FAB8A20121002002F033FA0D
:1006C00068E1072940F0668110EE100A01F00EFF84
:1006D00002460B460FF2B03104A801F02BFF04AA2A
:1006E0000021084602F01FFAACA20121002002F00E
:1006F0001AFA4FE10A2940F04D8110EE100A01F07C
:10070000F5FE02460B460FF28C3104A801F012FFF1
:1007100004AA0021084602F006FAA1A20121002045
:1007200002F001FA36E1032940F0348110EE100A9C
:1007300001F0DCFE02460B460FF2643104A801F022
:10074000F9FE04AA0021084602F0EDF995A2012164
:10075000002002F0E8F91DE10846032815D110EE4B
:10076000100A01F0C3FE02460B460FF2343104A812
:1007700001F0E0FE04AA0021084602F0D4F98AA2A2
:100780000121002002F0CFF904E1042940F00281A8
:1007900010EE100A01F0AAFE02460B460FF20C31D1
:1007A00004A801F0C7FE04AA0021084602F0BBF924
:1007B0007DA20121002002F0B6F9EBE008460528F1
:1007C00015D110EE100A01F091FE02460B460FF211
:1007D000E82104A801F0AEFE04AA0021084602F0B8
:1007E000A2F972A20121002002F09DF9D2E00429B1
:1007F00040F0D08010EE100A01F078FE02460B4661
:100800000FF2A82104A801F095FE04AA00210846D1
:1008100002F089F965A20121002002F084F9B9E013
:10082000052940F0B78010EE100A01F05FFE024685
:100830000B460FF2842104A801F07CFE04AA0021DB
:10084000084602F070F95AA20121002002F06BF96B
:10085000A0E0002940F09E8010EE100A01F046FE54
:1008600002460B460FF2642104A801F063FE04AABD
:100870000021084602F057F9DFF8D40902680FF2A8
:10088000442104A801F056FE04AA0121002002F030
:100890004AF97FE008001DD110EE100A01F026FE93
:1008A00002460B460FF2242104A801F043FE04AADD
:1008B0000021084602F037F9DFF8940902680FF2C8
:1008C000182104A801F036FE04AA0121002002F03C
:1008D0002AF95FE001295DD110EE100A01F006FE51
:1008E00002460B460FF2F81104A801F023FE04AAF9
:1008F0000021084602F017F92EA20121002002F083
:1009000012F947E00846022815D110EE100A01F04E
:10091000EDFD02460B460FF2D41104A801F00AFEC9
:1009200004AA0021084602F0FEF823A201210020BB
:1009300002F0F9F82EE001292CD110EE100A01F096
:10094000D5FD02460B460FF2981104A801F0F2FD06
:1009500004AA0021084602F0E6F817A201210020AF
:1009600002F0E1F816E0022914D110EE100A01F0AD
:10097000BDFD02460B460FF2741104A801F0DAFD2A
:1009800004AA0021084602F0CEF80CA201210020A2
:1009900002F0C9F809B000BD4C3100004C32000033
:1009A00046202000523020005231200052322000D8
:1009B000523320005631200056322000563320009A
:1009C00080000020740C002000E80008AA555A5A44
:1009D00081000020200D0020280B0020E00A0020CC
:1009E000433120435820252E326620252E326600C2
:1009F000252E316620252E316620252E31662000D9
:100A0000433220252E32662000000000433320258B
:100A10002E32662000000000433420252E3266204E
:100A200000000000433520252E3266200000000023
:100A3000433620252E326620000000004337202553
:100A40002E32662000000000433820252E3266201A
:100A500000000000435820252E32662000000000D0
:100A6000433920252E326620000000004339204300
:100A700048000000434820252E3266200000000078
:100A800043313020434800004C5820252E32662048
:100A900000000000465820252E326620000000008D
:100AA000524C20252E32662000000000524D202599
:100AB0002E32662000000000524820252E3266208B
:100AC0000000000056302025642020004C562025D0
:100AD0002E326620000000005631202564202000C0
:100AE0004D5620252E326620000000004856202555
:100AF0002E3266200000000070B52DED028B0546F9
:100B00000E46B0EE408AFFF7E9FB0B2E1FD8DFE858
:100B100016F0CF02110325035901D2013A020C004D
:100B2000310109011E00B302B30228001CD19FED60
:100B3000AF0AB4EE408AF1EE10FA07D5BBEE090A0F
:100B4000B4EE408AF1EE10FA80F22F83032420469F
:100B5000C0B2032803D10020DFF8F8160870204641
:100B6000C0B2BDEC028B70BD01280ED19FEDA00A72
:100B7000B4EE408AF1EE10FAE8D5B3EE040AB4EE12
:100B8000408AF1EE10FAE1DB0FE302280ED19FED6F
:100B9000990AB4EE408AF1EE10FAD7D59FED960A85
:100BA000B4EE408AF1EE10FAD0DBFEE203280ED15B
:100BB0009FED920AB4EE408AF1EE10FAC6D59FED91
:100BC000900AB4EE408AF1EE10FABFDBEDE20428A1
:100BD0000ED19FED8C0AB4EE408AF1EE10FAB5D535
:100BE0009FED890AB4EE408AF1EE10FAAEDBDCE24A
:100BF00005280ED19FEDBA0AB4EE408AF1EE10FA44
:100C0000A4D59FEDB80AB4EE408AF1EE10FA9DDB50
:100C1000CBE206280ED19FEDB40AB4EE408AF1EE85
:100C200010FA93D59FEDB10AB4EE408AF1EE10FAB6
:100C30008CDBBAE207280FD19FEDAD0AB4EE408AF3
:100C4000F1EE10FA82D59FEDAB0AB4EE408AF1EED8
:100C500010FAFFF67BAFA8E2082810D19FEDA60A94
:100C6000B4EE408AF1EE10FA7FF570AF9FEDA30A63
:100C7000B4EE408AF1EE10FAFFF668AF95E209286B
:100C800053D0182D7FF463AFDFF8C8552C78002CB3
:100C900004D100221021281D02F06EFF641C2C706C
:100CA0002046C0B2012800F00181D5ED018AF5EEA1
:100CB000408AF1EE10FA02D5B1EE680A01E0B0EE1A
:100CC000680ADFEDC70AB4EE600AF1EE10FA0EDB37
:100CD00010EE100A01F00AFCDFF8A42BDFF8A43BA9
:100CE00002F06CFF03F03CF800EE100A01E0B6EEF3
:100CF000000A78EEC00AB4EE608AF1EE10FAFFF650
:100D000025AF38EE800AB4EE480AF1EE10FAFFF68D
:100D10001DAF85ED018AE4B2032CC0F246820020AB
:100D2000287042E22846092810D19FEDC50AB4EE8A
:100D3000408AF1EE10FA7FF509AF9FEDC20AB4EEDA
:100D4000408AF1EE10FAFFF601AF2EE20A2D7FF491
:100D5000FEAE9FEDC70AB4EE408AF1EE10FA7FF5C1
:100D6000F5AE9FEDC40AB4EE408AF1EE10FAFFF63C
:100D7000EDAE1AE228460F2810D19FEDC90AB4EE55
:100D8000408AF1EE10FA7FF5E1AEB9EE000AB4EE5A
:100D9000408AF1EE10FAFFF6D9AE06E2102D7FF48C
:100DA000D6AE9FEDC00AB4EE408AF1EE10FA7FF5A0
:100DB000CDAE9FEDBD0AB4EE408AF1EE10FAFFF61B
:100DC000C5AEF2E128460B2820D19FEDB80AB4EE5B
:100DD000408AF1EE10FA7FF5B9AEBBEE040AB4EE2C
:100DE000408AF1EE10FAFFF6B1AEDEE10100A0425A
:100DF0000100C84201004843000048420100E143AD
:100E0000000016430180A24400002F440C2855D056
:100E1000172D7FF49CAEDFF83C542C78002C04D1C5
:100E200000221021281D02F0A7FE641C2C709FEDEB
:100E3000BE0AB4EE408AF1EE10FABFF687AEE4B215
:100E4000012C33D0D5ED018AF5EE408AF1EE10FA8F
:100E500002D5B1EE680A01E0B0EE680ADFED600A83
:100E6000B4EE600AF1EE10FA0EDB10EE100A01F09B
:100E70003DFBDFF80C2ADFF80C3A02F09FFE02F08F
:100E80006FFF00EE100A01E0B6EE000A78EEC00A2D
:100E9000B4EE608AF1EE10FAFFF658AE38EE800A32
:100EA000B4EE480AF1EE10FAFFF650AE284680ED97
:100EB000018A02244BE628460C2821D19FEDBC0A6A
:100EC000B4EE408AF1EE10FA7FF540AE9FEDB90A1C
:100ED000B4EE408AF1EE10FAFFF638AE65E100BFDD
:100EE00001404E4500C0284501E02B4600A00C46BD
:100EF00001D8D64700C8AF470147864900BA5B49C9
:100F00000D2800F08B80172D7FF421AEDFF84443CD
:100F10002078012833D0D4ED028AF5EE408AF1EE34
:100F200010FA02D5B1EE680A01E0B0EE680ADFED12
:100F30002C0AB4EE600AF1EE10FA0EDB10EE100A85
:100F400001F0D4FADFF83829DFF8383902F036FE3C
:100F500002F006FF00EE100A01E0B6EE000A78EE9D
:100F6000C00AB4EE608AF1EE10FAFFF6EFAD38EE8B
:100F7000800AB4EE480AF1EE10FAFFF6E7AD84ED10
:100F8000028A0224E3E52846172845D1B14C25788A
:100F9000012D03D184ED038A0224D8E5D4ED038A20
:100FA000F5EE408AF1EE10FA02D5B1EE680A01E0E2
:100FB000B0EE680ADFED0A0AB4EE600AF1EE10FA4C
:100FC00010DB10EE100A01F091FADFF8B428DFF818
:100FD000B43802F0F3FD02F0C3FE00EE100A03E0A5
:100FE0000100803FB6EE000A78EEC00AB4EE608AD7
:100FF000F1EE10FAFFF6AAAD38EE800AB4EE480A18
:10100000F1EE10FAFFF6A2AD84ED038A032DC0F2D3
:10101000CC8000202070C8E00D2815D19FED7D0AFE
:10102000B4EE408AF1EE10FA7FF590AD9FED7A0AAA
:10103000B4EE408AF1EE10FAFFF688ADB5E000BFDD
:10104000E1792F4B20B3014B0E2D7FF480AD9FED46
:10105000730AB4EE408AF1EE10FA7FF577AD9FED9A
:10106000700AB4EE408AF1EE10FAFFF66FAD9CE024
:10107000F1CED14D50A9AB4D152D7FF468AD9FED4C
:10108000690AB4EE408AF1EE10FA7FF55FAD9FED8C
:10109000660AB4EE408AF1EE10FAFFF657AD84E02E
:1010A0000100C04001803B460000FA450100A0411C
:1010B0002846172824D167480178012903D180EDFB
:1010C000048A022443E590ED040ADFED580A70EE2D
:1010D000200AB4EE608AF1EE10FAFFF637ADDFEDCC
:1010E000540A30EE200AB4EE480AF1EE10FAFFF688
:1010F0002DAD80ED048A032957DB0021017054E0F7
:10110000112813D19FED4B0AB4EE408AF1EE10FA8C
:101110007FF51CADB0EE000AB4EE408AF1EE10FA95
:10112000FFF614AD41E000BF01004842122D7FF4EC
:101130000EAD02E02846122824D19FED3F0AB4EEFE
:10114000408AF1EE10FA7FF501AD9FED3C0AB4EE56
:10115000408AF1EE10FAFFF6F9AC26E02846142892
:1011600010D19FED370AB4EE408AF1EE10FA7FF508
:10117000EDAC9FED340AB4EE408AF1EE10FAFFF6C2
:10118000E5AC12E0132D7FF4E2AC9FED2F0AB4EE34
:10119000408AF1EE10FA7FF5D9AC9FED2C0AB4EE3F
:1011A000408AF1EE10FAFFF6D1AC0224CFE4000041
:1011B0000100024300008C4210B52DED028B144655
:1011C000B0EE408AFFF798FC022803D184ED008A34
:1011D000022000E00320BDEC028B10BD1C4951F839
:1011E000200010F1010F01D101207047002070474D
:1011F0004FF0FF31164A42F82010DFF8E02B42F89A
:1012000020100020DFF8D81B0880DFF8D81B0880EA
:1012100070470000011826460068124601E87D4923
:1012200000606A490144C547005CC1479A9999BE6C
:101230009A99993E010020410100C8430000AA4349
:1012400001282047005818470160904500A08245BA
:1012500020030020E40C00207CB505460C46164611
:10126000182800F2FB82DFE810F0190024002F009C
:101270003A00450050005B00660071009700CF0007
:10128000240148018001B801F300FE00DC010002E6
:1012900038026F029102F902CF02FB02DFF8480B1D
:1012A0000078002857D00620FFF798FF012861D169
:1012B00080E2DFF8340B007800284CD00620FFF7DE
:1012C0008DFF012856D175E2DFF81C0B007800284D
:1012D00041D00620FFF782FF01284BD16AE2DFF8F8
:1012E000080B0078002836D00620FFF777FF01288A
:1012F00040D15FE2DFF8F00A007800282BD006200A
:10130000FFF76CFF012835D154E2DFF8DC0A0078E2
:10131000002820D00620FFF761FF01282AD149E2EA
:10132000DFF8C40A0078002815D00620FFF756FF22
:1013300001281FD13EE2DFF8B00A007800280AD069
:101340000620FFF74BFF012814D133E2DFF8980A9B
:101350000078002808D10620FFF74AFF0120DFF8B7
:10136000881A0870042076BD0620FFF737FF012891
:1013700000F020826946062002F0C4FE9DED000ABE
:10138000204606EB800206212846FFF715FF01469E
:10139000022940F064822FE2DFF84C5A28780028B6
:1013A00009D10620FFF724FF0820FFF721FF0120C5
:1013B0002870042076BD0620FFF710FF012800F0FA
:1013C000F9816946062002F09DFE204606EB800565
:1013D0009DED000A2A4606210920FFF7EDFE014691
:1013E000022940F03C826946082002F08BFE9DED08
:1013F000000A05F10C0208210920FFF7DDFE014675
:10140000022940F02C82F7E1DFF8DC592878002827
:1014100006D10820FFF7ECFE01202870042076BDDD
:101420000820FFF7DBFE012800F0C4816946082090
:1014300002F068FE9DED000A204606EB80020821BE
:101440000A20FFF7B9FE0146022940F00882D3E1E5
:10145000DFF89409007800280AD00720FFF7BEFEC5
:10146000012814D1A6E1DFF880090078002808D10E
:101470000720FFF7BDFE0120DFF86C19087004207B
:1014800076BD0720FFF7AAFE012800F09381694688
:10149000072002F037FE9DED000A204606EB800291
:1014A00007212846FFF788FE0146022940F0D78130
:1014B000A2E1DFF834592878002806D10320FFF78D
:1014C00097FE01202870042076BD0320FFF786FEDA
:1014D000012800F06F816946032002F013FE9DEDA4
:1014E000000A204606EB800203210B20FFF764FE72
:1014F0000146022940F0B3817EE1DFF8EC582878FC
:10150000002809D10320FFF773FE0420FFF770FEC7
:1015100001202870042076BD0320FFF75FFE01281C
:1015200000F048816946032002F0ECFD204606EBFE
:1015300080059DED000A2A4603210C20FFF73CFEA2
:101540000146022940F08B816946042002F0DAFD51
:101550009DED000A05F10C0204210C20FFF72CFE82
:101560000146022940F07B8146E1DFF87C5828786B
:10157000002809D10420FFF73BFE0520FFF738FEC5
:1015800001202870042076BD0420FFF727FE0128E3
:1015900000F010816946042002F0B4FD204606EBFD
:1015A00080059DED000A2A4604210D20FFF704FE68
:1015B0000146022940F053816946052002F0A2FD50
:1015C0009DED000A05F10C0205210D20FFF7F4FD49
:1015D0000146022940F043810EE1DFF80C582878DB
:1015E000002806D10520FFF703FE01202870042003
:1015F00076BD0520FFF7F2FD012800F0DB8069468B
:10160000052002F07FFD9DED000A204606EB8002DA
:1016100005210E20FFF7D0FD0146022940F01F8171
:10162000EAE0DFF8C4572878002806D10020FFF749
:10163000DFFD01202870042076BD0020FFF7CEFDDD
:10164000012800F0B7806946002002F05BFD9DEDA7
:10165000000A204606EB800200211120FFF7ACFDB6
:101660000146022940F0FB80C6E0DFF87C5728786D
:10167000002809D10020FFF7BBFD0120FFF7B8FDCE
:1016800001202870042076BD0020FFF7A7FD012867
:1016900000F090806946002002F034FD204606EB01
:1016A00080059DED000A2A4600211220FFF784FDE7
:1016B0000146022940F0D3806946012002F022FD54
:1016C0009DED000A05F10C0201211220FFF774FDC7
:1016D0000146022940F0C3808EE0DFF80C572878DD
:1016E000002809D10120FFF783FD0220FFF780FDCC
:1016F00001202870042076BD0120FFF76FFD01282E
:1017000058D06946012002F0FDFC204606EB80051A
:101710009DED000A2A4601211320FFF74DFD0146E9
:10172000022940F09C806946022002F0EBFC9DED0E
:10173000000A05F10C0202211320FFF73DFD0146CE
:10174000022940F08C8057E0DFF89C56287800286A
:1017500006D10220FFF74CFD01202870042076BD41
:101760000220FFF73BFD012824D06946022002F049
:10177000C9FC9DED000A204606EB800202211420E0
:10178000FFF71AFD0146022969D135E0DFF8585606
:101790002878002809D10B20FFF72AFD0A20FFF73F
:1017A00027FD01202870042076BD0A20FFF716FDD2
:1017B000012801D1042076BD69460A2002F0A2FC6E
:1017C000204606EB80059DED000A2A460A211520D9
:1017D000FFF7F2FC0146022941D169460B2002F0D5
:1017E00091FC9DED000A05F10C020B211520FFF77D
:1017F000E3FC0146022932D1022C2FDB0020DFF866
:10180000E8150870052076BD6946032002F07AFCD1
:1018100006EB84049DED000A224603211720FFF702
:10182000CBFC014602291AD19DED000A04F10C02FD
:1018300004211720FFF7C0FC014602290FD1694699
:10184000052002F05FFC9DED000A04F1180205215D
:101850001720FFF7B1FC0146022900D1022076BD16
:101860006946062002F04EFC9DED000A06EB84025C
:1018700006211820FFF7A0FC01460229EED076BD14
:101880009A9999999999A93F10B52DED028BB0EECF
:10189000408A182800F24681DFE810F01900700035
:1018A0002100290031003900410049005100590050
:1018B0006800880090009F00AE0078008000B600AD
:1018C000BE00CC00DA00E1004401EF001001002A64
:1018D00040F02881DFF8D00A80ED008A22E1002A5A
:1018E00040F02081DFF8C00A80ED028A1AE1002A68
:1018F00040F01881DFF8B00A80ED038A12E1002A77
:1019000040F01081DFF8A00A80ED048A0AE1002A85
:1019100040F00881DFF8900A80ED058A02E1002A94
:1019200040F00081DFF8800A80ED068AFAE0002AA4
:1019300040F0F880DFF8700A80ED078AF2E0002AB4
:1019400040F0F080DFF8600A80ED088AEAE01000DD
:1019500004D1DFF8540A80ED098AE3E0012A40F05F
:10196000E180DFF8440A80ED0A8ADBE0002A40F0DB
:10197000D980DFF8340A80ED0B8AD3E0002A40F0EA
:10198000D180DFF8240A80ED018ACBE0002A40F004
:10199000C980DFF8140A80ED0D8AC3E0002A40F008
:1019A000C180DFF8040A80ED0E8ABBE0002A40F017
:1019B000B980DFF8F40980ED118AB3E0100004D19A
:1019C000DFF8E40980ED128AACE0012A40F0AA8039
:1019D000DFF8D40980ED138AA4E0100004D1DFF809
:1019E000C80980ED148A9DE0012A40F09B80DFF851
:1019F000B80980ED158A95E0002A40F09380DFF861
:101A0000A80980ED168A8DE0002A40F08B80DFF86F
:101A1000980980ED178A85E0100004D1DFF8880965
:101A200080ED188A7EE0012A7CD1DFF87C0980ED08
:101A3000198A77E0100004D1DFF86C0980ED1A8A6A
:101A400070E0012A6ED1DFF8600980ED1B8A69E041
:101A5000002A67D1DFF8500980ED1C8A62E010008F
:101A600004D1DFF8440980ED0F8A5BE0012A59D1E7
:101A7000DFF8340980ED108A54E0002A03D0022AEE
:101A800013D009D34EE0DFF8240990ED030A30EEBD
:101A9000480A81ED040A45E0DFF8100990ED040AD8
:101AA00030EE480A81ED050A3CE0DFF8000990EDD0
:101AB000050A30EE480A81ED060A33E0DFF8EC084B
:101AC00090ED060A30EE480A81ED070ADFF8E0489B
:101AD00094ED000A30EE480A84ED000A94ED020A03
:101AE00030EE480A84ED020A94ED030A30EE480A0B
:101AF00084ED030A94ED040A30EE480A84ED040AEA
:101B000094ED050A30EE480A84ED050A02F07EFFE6
:101B100040F26311884205DB94ED010A30EE480A79
:101B200084ED010A0020BDEC028B10BD2DE9FE43BF
:101B300004468946DFF87C582E78304602287ADC45
:101B4000A878012806D10020A870FF223021281D86
:101B500002F012F82A1D31462046FFF77DFB804631
:101B6000022809D12878401C2870C0B2022801DD63
:101B70000020287002205FE005284ED10020287048
:101B80006870064601E0761CF6B2042E3EDA06EBDB
:101B900046008700281DC05910F1010FF3D0002224
:101BA0000821684601F0E8FF4FF001080DE0E9194F
:101BB00001EB8000406800F099FCDDE9002303F0B0
:101BC00031FFCDE9000108F101084046C0B202280A
:101BD000EDDDDDE900230020DFF8DC1701F0EEFF8A
:101BE000CDE9000102F0BCF800EE100A30460246D2
:101BF00049462046FFF748FE80460028C3D0FF2212
:101C00003021281D01F0B8FF404615E0FF223021A9
:101C1000281D01F0B1FF40460EE0042801D1042048
:101C20000AE06878401C6870C0B2052801D306201D
:101C300002E0404600E00320BDE8FE830A2808D900
:101C40000B38032817D9001F01280BD9801F1BD080
:101C500023E00020DFF8641708800320DFF8601716
:101C6000088070470020DFF8541708800420DFF850
:101C70005017088070470020DFF8401708800120C7
:101C8000DFF83C17088070470020DFF83017088025
:101C90000520DFF82C17088070470020DFF81C179C
:101CA0000880DFF81C17088070471138032806D811
:101CB0000020DFF808170880DFF804170880704755
:101CC0002DE9FC4104460D46DFF8F86630782146E0
:101CD000884201D0002070707078002833D103F062
:101CE00081FF03F0F5FF00284DD1274607EB47079A
:101CF000DFF8D48608F10100C05D40F0800003F0F9
:101D0000B8FF4744B87803F0B4FF012004F021F88D
:101D100003F084FF8DF8000003F080FF8DF80100D0
:101D20000A2004F016F8802202216846FEF775FAB0
:101D3000002826D10120707034703878FFF77EFFBC
:101D40000020284908807078002844D02549088858
:101D5000002840D000200880DFF86C0604EB440423
:101D6000061929463078FFF7E1FE0446022C30D0F0
:101D7000002C2ED0042C2CD0062C09D00A2C28D1D3
:101D800006E0072028E0082026E00A2003F0E1FF13
:101D900003F028FF03F09CFF0028F6D1C92003F0D0
:101DA00068FFB07803F065FF012003F0D2FF03F075
:101DB00035FF8DF8000003F031FF8DF801000A2097
:101DC00003F0C7FF802202216846FEF726FA0028AA
:101DD000DBD1204600E00120BDE8F681380100207B
:101DE0004000002044000020350D002080B503F0A5
:101DF000F9FE03F06DFF00281CD1BA2003F039FF73
:101E0000FF2003F036FF012003F0A3FF03F006FFDD
:101E10008DF8000003F002FF8DF801000A2003F0A6
:101E200098FF802202216846FEF7F7F9002801D1C9
:101E300000F0B2FB0A2003F08CFFD8E770B505462E
:101E4000DFF86445B7EE000AD4ED0D0A30EE600A03
:101E500085ED080A94ED120AD4ED110A30EE600AFD
:101E6000DFED990A80EE800A05F1840686ED030A0B
:101E7000D4ED110A20EEC00A10EE100A00F036FB75
:101E80004FF03332DFF8443503F0CCFD01F068FF4A
:101E9000286194ED140AD4ED130A30EE600ADFEDE8
:101EA0008B0A80EE800A86ED040AD4ED130A9FEDBA
:101EB000861A00EEC01A85ED051A94ED160AD4EDC7
:101EC000150A30EE600ADFED820AC0EE800AC6ED28
:101ED000050A9FEDA30A94ED151AF0EE401A41EEA3
:101EE000601AC5ED061AD4ED180A94ED171A70EEB3
:101EF000C10A9FED9C1AC1EE200AC6ED000A94EDBE
:101F0000171AF1EE041A41EE601AC5ED011AD4ED6C
:101F10001A0A94ED191A70EEC10A9FED931AC1EED8
:101F2000200AC6ED010A94ED191ADFED901A41EE70
:101F3000601AC5ED021AD4ED1C0A94ED1B1A70EE5E
:101F4000C10A9FED8B1AC1EE200AC6ED020A94ED7C
:101F50001B1ADFED881A41EE601AC5ED031AD4EDA5
:101F6000000ADFF84C04B9EE081A31EE601A80ED71
:101F7000001ADFF85C144FF07E520A6094ED011AEB
:101F800071EE601A9FED7C2AC2EE211AC1ED011A92
:101F9000B9EE082A00EEE12A80ED012AD4ED020A0A
:101FA00070EEC11A9FED752AC2EE211AC1ED021A18
:101FB0009FED732A01EE612A80ED022A94ED031A47
:101FC00071EE601A9FED6F2AC2EE211AC1ED031A5D
:101FD0009FED6D2A00EEE12A80ED032AD4ED040A7C
:101FE00070EEC11A9FED692AC2EE211AC1ED041AE2
:101FF0009FED672A01EE612A80ED042A94ED051A0F
:1020000071EE601A9FED632AC2EE211AC1ED051A26
:102010009FED612A00EEE12A80ED052AD4ED060A43
:1020200070EEC11A9FED5D2AC2EE211AC1ED061AAB
:102030009FED5B2A01EE612A80ED062A94ED071AD6
:1020400071EE601A9FED572AC2EE211AC1ED071AF0
:1020500000EEE10A80ED070A94ED080A70EE410AED
:10206000DFED511AC1EEA00AC1ED080ADFED4F1AEB
:1020700041EE601AC0ED081AD4ED090A70EEC00AEC
:102080009FED4B1AC1EE200AC1ED090A9FED491AD6
:1020900000EE601A80ED091A94ED0A0AD4ED0B0ADD
:1020A00070EEC00A9FED441AC1EE200AC1ED0B0A82
:1020B0009FEDBC1A00EE601A80ED0A1AC1ED0A0A03
:1020C00080ED0B1A70BD00000000C84200B01A4637
:1020D00000B3714918B400238DF800308DF800303A
:1020E0000CE09DF800309DF8004050F8244041F885
:1020F00023409DF800305B1C8DF800309DF80030C7
:102100001446A342EDD311BC704710B51124002032
:1021100009E0A649002241F82020AE494FF07E5246
:1021200041F82020401C0828F3DB02F06FFC40F24D
:102130006311884200DB122400200AE09C4900223F
:1021400041F82020A2494FF07E5241F82020401C47
:10215000C0B2A042F2DB00209F49086310BD00001E
:1021600000401C460080B64300E07B450000B943B8
:1021700000100B47008089450000204200004842C3
:102180000000084200003E430000A84200403544E1
:10219000000089430080FE4400C0794400A8D9456E
:1021A00000B03D4500C8AF4700BA5B490050C34787
:1021B0004054094B002474496CF7B94D30B5C1B097
:1021C00000224FF48271684601F0D6FCFFF79DFFB4
:1021D00001E0FFF70BFE00241CE02046C0B2FDF733
:1021E000D5FF092815D078482146C9B201EB410135
:1021F000405CFFF75AFD002000F072FC6946204663
:10220000C0B2FFF75DFD0546322003F0A2FD002DB0
:10221000F4D1641C2046C0B21628DED3DBD30020E4
:102220000BE001A9002241F82020694601EB800162
:102230004FF07E52C1F88420401C2028F1DB684614
:10224000FFF7FCFD9DED010A584880ED000ADDED29
:10225000020AC0ED010A9DED031A80ED021ADDEDC0
:10226000041AC0ED031A9DED052A80ED042ADDED68
:10227000062AC0ED052A9DED083A80ED073ADDED0E
:10228000213A5448C0ED003A21A991ED014A80ED70
:10229000014AD1ED024AC0ED024A91ED035A80EDA8
:1022A000035AD1ED055AC0ED055A91ED046A80ED4F
:1022B000046A4A4800904A4901F58C7080ED000A92
:1022C000C0ED010A80ED021AC0ED031A80ED042A68
:1022D000C0ED052A80ED073AC0ED1A3A80ED1B4AA1
:1022E000C0ED1C4A80ED1D5A80ED1E6AC0ED1F5ADC
:1022F00000200CE001EB800202F59C722C4B53F89D
:1023000020301360324B53F820309366401C122863
:10231000F0DB00200CE06A4602EB8002244B53F80D
:102320002030D3632A4B53F82030C2F8BC30401C15
:102330001228F0DB4FF4F6722A4803F034FE00282E
:1023400009D0002000F0CCFB0FF2A80200210846C3
:1023500000F0E9FBFEE70A2003F0FBFC4FF4827279
:102360006946214803F01FFE04460A2003F0F1FCF1
:10237000194D0C2229460C48FFF7ACFE1B48286378
:10238000342229461A4803F00EFE002C3FF421AFF8
:10239000002000F0A5FB00BF19A20021084600F0B4
:1023A000C2FBFEE78096184B700B002070030020E4
:1023B000E00A0020C40000200000E03F30010020BF
:1023C0003201002002060020800000203333D3BFFA
:1023D000280B002090030020740C00205A5AA5A559
:1023E0000406002000F0000800F80008AA555A5A18
:1023F00000E800085361766555204572722E000092
:102400005361766541204572722E000062B38B07DE
:1024100008D0521E11F8013B00F8013B00F0248067
:102420008B07F6D1830740F0208000BF103A07D316
:1024300030B4B1E83810103AA0E83810F9D230BC06
:10244000530724BFB1E80810A0E8081044BF51F8B2
:10245000043B40F8043BD20724BF31F8022B20F89C
:10246000022B44BF0B7803707047121F17D35B0019
:1024700009D151F8043B20F8023B1B0C121F20F835
:10248000023BF6D20BE051F8043B00F8013B1B0A7B
:1024900020F8023B1B0C121F00F8013BF3D238BF9F
:1024A000121D521E24BF11F8013B00F8013BF8D861
:1024B000704730B4002513E050F8042BD30744BF15
:1024C000A9F101039A18091F042942F8045BFAD202
:1024D00013468C0744BF15809B1CC90748BF1D705D
:1024E00050F8041B0029E7D130BC7047C0F3C75136
:1024F00081B1FF2906D0C110400721F0E04101F170
:102500006051704741020CBF40F4E0016FF00041A0
:102510000020704700F0004100020AD0B0FA80FCB1
:1025200000FA0CF001F16051A1EB0C5101EBD0214C
:10253000400570470CB430B583B00A4606A9029135
:10254000044600250194009502AB01A9084878448F
:102550001E3003F083FD019A157000284EBF04461B
:102560000198041B204603B030BC5DF80CFB00BF93
:1025700043160000016841F00101016070476FF0EF
:10258000010101617047006900F001007047C168F6
:1025900041F00101C160704738B586B000221421B6
:1025A000684601F0E9FA002000F09AFA00F0F5F927
:1025B000DFF8780A4068804772B671B6042001F0EF
:1025C00061FFDFF86C4A206840F00100206020685D
:1025D00000F0010005900598012000900020019076
:1025E0000120029069464FF0904004F00DFD2068F4
:1025F00040F002002060206800F00200059005987D
:10260000402000900020019001200290DFF8245A21
:102610006946284604F0F8FC206840F0020020607B
:10262000206800F002000590059808200090002026
:102630000190022002906946284604F0E5FC012141
:10264000002004F0C9FD4021012004F0C5FD08214F
:10265000012004F000FE04F039FE012004F0A4FE85
:102660001F20DFF8D4190860212004F091FE04F047
:1026700033FEFEE72DE9F84386B00446002214211C
:10268000684601F079FA00200290032003900125AA
:10269000A540DFF89C69306840F001003060306888
:1026A00000F0010005900598402000902846C009E0
:1026B00000F00100019069464FF0904004F0A4FC46
:1026C0004FF090474020B862306840F00100306021
:1026D000306800F00100059005988020009005F416
:1026E0002070401E8041C043C00F019069463846AB
:1026F00004F08AFC8020B862306840F0010030604D
:10270000306800F00100059005980420009005F461
:102710004060401E8041C043C00F029005F47070BD
:10272000B0F1010868EB08086FEA08084FEAD878AA
:10273000CDF804806946384604F066FC0420B86190
:10274000306840F001003060306800F00100059012
:1027500005984FF40049CDF800900120019069469A
:10276000384604F051FC15F4286F02D0C7F82890C1
:1027700001E0C7F81890306840F00200306030681F
:1027800000F002000590059840200090DFF8A49822
:102790006946484604F038FC4AF27810054203D0F6
:1027A0004020C9F8180002E04020C9F8280030682D
:1027B00040F002003060306800F00200059005989B
:1027C0000120009015F4406F01D0022000E00020AD
:1027D0000290CDF804806946484604F015FC0120BB
:1027E000C9F82800306840F002003060306800F01E
:1027F0000200059005982020009001200190694674
:10280000484604F001FC0C2C03D12020C9F8280014
:1028100002E02020C9F81800306840F00100306064
:10282000306800F00100059005984FF48074009422
:10283000012001906946384604F0E6FB48F220107A
:10284000054201D0BC6100E0BC62306840F002008B
:102850003060306800F00200059005980820009074
:10286000012001906946484604F0CEFB4CF2070077
:10287000054203D00820C9F8280002E00820C9F862
:10288000180007B0BDE8F08310B586B0002214210F
:10289000684601F071F9DFF89847206840F00100C0
:1028A0002060206800F00100059005980320039047
:1028B00001200290042004904FF400700090022048
:1028C00001900020039069464FF0904004F09CFB7B
:1028D0004FF4806000901220019000200390694620
:1028E0004FF0904004F090FBE06840F40010E0608E
:1028F000E06800F4001005900598DFF8C04ADFF8A2
:10290000C00A2060DFF8580B60600020A060012042
:10291000E060002020616061A061E06120622046EB
:1029200004F052FD0021204605F096F800212046D3
:1029300005F0BCF806B010BD06B583B00A46FF210D
:1029400002910121019104A9009101230146DFF8C0
:102950006C0A04F092FD05B000BD1FB5FF2402947F
:102960000193009201230A460146DFF8500A04F061
:102970004AFE1FBDF8B50A46FF21029101210191CF
:1029800003A9009101230146DFF8300A04F03BFE61
:102990009DF80C0005B000BD000080B58D2200211F
:1029A0007820FFF7C9FF102200217820FFF7C4FF2D
:1029B000AE2200217820BDE80840BDE780B58D2219
:1029C00000217820FFF7B8FF142200217820FFF7BC
:1029D000B3FFAF2200217820BDE80840ACE700003B
:1029E000DFF8601C0880032800D9704780B5DFE855
:1029F00000F0020D1823A12200217820FFF79CFF90
:102A0000C82200217820BDE8084095E7A0220021D7
:102A10007820FFF791FFC82200217820BDE8084008
:102A20008AE7A12200217820FFF786FFC02200213B
:102A30007820BDE808407FE7A02200217820FFF73A
:102A40007BFFC02200217820BDE8084074E701BD6B
:102A500038B50446812200217820FFF76DFF224619
:102A6000D2B200217820FFF767FF00BF06A400253F
:102A700006E014F8012B00217820FFF75DFF6D1CA4
:102A8000142DF6D331BD0000AEA80FD552D30040AF
:102A90008D14DA02D9F1DB30A4A6AF0010B50446DC
:102AA000DFF8A00B0088032801D0012800D12034D2
:102AB000A1F15002D2B200217820FFF73DFF22465B
:102AC000D2B212091032D2B200217820FFF734FFBF
:102AD00004F00F04224600217820BDE810402BE7C7
:102AE00038B5044600210846FFF7D8FF002505E069
:102AF000224640217820FFF71FFF6D1C2846C0B2F8
:102B00006028F5DB01210020FFF7C8FF002505E064
:102B1000224640217820FFF70FFF6D1C2846C0B2E7
:102B20006028F5DB31BD70B51446FFF7B7FF08E04C
:102B3000AA5D40217820FFF7FFFE761C062EF7D312
:102B4000641C2078002809D0DFF8701C00EB4002DC
:102B500001EB4200A0F1C0050026EFE770BD2DE9B2
:102B6000F04106460C4615460CE017F808204021B7
:102B70007820FFF7E1FE08F10108B8F1100FF4D357
:102B80006D1C08362878002821D0DFF8341C01EBB2
:102B90000010A0F5007721463046C0B2FFF77EFF57
:102BA0004FF0000807E017F8082040217820FFF7D1
:102BB000C3FE08F10108B8F1080FF4D3611CC9B2D3
:102BC0003046C0B2FFF76AFF4FF00808D5E7BDE80E
:102BD000F08110B5B0B000202E2410E04100491C57
:102BE000DFF8042B125C234691FBF3F304FB131173
:102BF000DFF8383C595C4A4069460A54401CC028FA
:102C0000ECDB00210846FFF749FF002406E0694697
:102C10000A5C40217820FFF78FFE641C2046C0B27A
:102C20006028F4DB01210020FFF738FF002408E0D2
:102C30006946084490F8602040217820FFF77CFE28
:102C4000641C2046C0B26028F2DB30B010BD10B565
:102C500086B00022142101A800F08EFF002204217A
:102C6000684600F089FFDFF85C0B016841F4004121
:102C70000160DFF8BC4BDFF8740C2060002060605E
:102C80007F20A060FF20E060002020616061A061E3
:102C9000E061204604F032FF0020ADF804008DF81A
:102CA000060004900590024601A9204604F08FFF1B
:102CB00007208DF8000003208DF8010018208DF802
:102CC000020013208DF8030000226946204604F01C
:102CD000FAFF06B010BD000078B591B0044606A812
:102CE0002C2105F0ABF800221421684600F044FFC7
:102CF0000125A540DFF8100C06904FF48070099074
:102D00000A2C01D1402001E0DFF8000C0A904FF4BA
:102D100040300B9000200C9007900D900E9015F411
:102D2000A07F02D00420089000E0089015F4F86F0E
:102D300006A805D005F0B5F806A805F068F904E086
:102D400005F08BF906A805F049F9DFF8E4020168FF
:102D500041F001010160006800F001000590059854
:102D60000020029015F4A07F02D00320039000E021
:102D700003900220009048F22200054201D0012079
:102D800000E00320019069464FF0904004F03CF9C8
:102D90004FF0904648F22000054202D00220B06178
:102DA00001E00220B062102000900E2004900D2C53
:102DB00006D1DFF8700C0088032801D1022009E059
:102DC00015F01C0F01D0012004E0680401D500209B
:102DD00000E0032001906946304604F015F9022C0A
:102DE00002D11020B06201E01020B06101200090FB
:102DF0000C20049015F4F86F01D0022000E00320AD
:102E000001906946304604F0FFF812B070BD30B54D
:102E100093B0044606A8342105F010F800221421CE
:102E200001A800F0A9FE012000FA04F4804D2868F2
:102E300040F001002860286800F001000090009830
:102E4000082001900020039003200290049001A923
:102E50004FF0904004F0D8F8E86840F08040E86017
:102E6000E86800F0804000900098DFF8700C069051
:102E70004FF0004007900220089000200D9014F0C1
:102E8000090F01D0202004E0600401D5002000E0FB
:102E900010200C9044F20F00044201D0082000E002
:102EA0000C200990600401D5002001E04FF400706F
:102EB0000A90600402D54FF4806000E000200B907F
:102EC0004DF23F00044206A805D005F0F9F806A827
:102ED00005F08AF904E005F0A2F906A805F066F904
:102EE00013B030BDF0B5A1B006460C46154601A89A
:102EF000142104F0A3FF0022242106A800F03CFEC8
:102F00000FA8482104F09AFFDFF8D87B386940F019
:102F100000503861386900F0005000900098DFF8E8
:102F2000C80B0190002101A805F07AFA386840F03A
:102F300001003860386800F0010000900098DFF868
:102F4000AC0B0F900FA805F0B9FB062010901020D5
:102F5000119000201290802013904FF480701490F4
:102F60004FF480601590202016904FF40050179079
:102F7000002006900A9001A805F095F930460D282A
:102F800033D1DFF86C7B388804282EDA00200890D3
:102F900009901420079001A805F070F9002206A9F5
:102FA00001A805F07FFA3888002801D002280FD147
:102FB0000FA805F01DFB0FA8039001A81990002091
:102FC000009023462A46014601A805F0AAF929E007
:102FD000012827D14FF43062002101A805F034FC0C
:102FE000002101A805F06EF91CE0022008900120E4
:102FF00009900020079001A805F040F9002206A9D9
:1030000001A805F04FFA0A2E02D140F2DA7300E06F
:1030100000230022114601A805F030FA002101A882
:1030200005F050F921B0F0BD0000000008010020BB
:103030004C1002400004004818700040F0B5B7B0D2
:103040000022142119A800F097FDDFF8A84A1EA855
:1030500021466422FFF7EAF90022182101A800F0B6
:103060008BFD07A804F164014822FFF7DFF9DFF8C0
:10307000747A786840F002007860786800F00200A6
:10308000009000980220199003201A9000201B90B5
:1030900019A9DFF8640A03F0B7FF786840F400501C
:1030A0007860786800F4005000900098DFF84C4A8F
:1030B0001E944FF4E0101F900020209021900120DA
:1030C00022900820239000208DF8900001208DF898
:1030D00091000220259000208DF8980028902990DA
:1030E00001208DF8A8002AAD4FF4805068600120BF
:1030F00028721C20E8604FF480762E610020686101
:103100000120A8611EA805F096FC7F211EA806F0EC
:10311000C8F8022003907F20049004200590DFF877
:10312000E00901900620029001A91EA805F0CAFD41
:10313000DFF8D00901900C20029001A91EA805F02B
:10314000C1FD386840F001003860386800F00100C7
:1031500000900098DFF8B079079700200890099058
:103160000A9080200B900C964FF480600D902020E8
:103170000E9000200F901EA805F073FD07980068C0
:10318000400840000799086007A805F031FA07A831
:10319000E8611EA8119005F025FD07980068400819
:1031A00040000799086002207860DFF86009F86045
:1031B000DFF85C09B860E06840F00100E060079863
:1031C000006840F001000799086037B0F0BDDFF8F3
:1031D00044190028086803D120F470600860704723
:1031E00040F480700860704700B595B005A8402194
:1031F00004F024FE0022102101A800F0BDFCDFF83D
:103200001809016841F400610160006800F4006081
:1032100000900098DFF804090590002006904FF612
:10322000FF7008900020079009900A900B9005A865
:1032300006F080F84FF400500190002002900390B7
:10324000049001A905A806F0AAF94FF4804105A849
:1032500006F035FB05A806F0BDF815B000BD30B589
:10326000A1B00446002214210CA800F085FC11A88E
:10327000402104F0E3FD00221021684600F07CFCB0
:1032800000220C2109A800F077FC0022102105A8DB
:1032900000F072FCDFF88858286840F001002860D0
:1032A000286800F001000490049820200C9002206F
:1032B000109000200E9002200D9000200F900CA97D
:1032C0004FF0904003F0A0FEE86840F00100E86095
:1032D000E86800F00100049004984FF080401190DD
:1032E000002012904FF0FF301490002013901590A2
:1032F00017904FF400500090002101910391214656
:103300000B2904D100904FF44050029004E04FF498
:103310008050009000200290694611A806F03FF905
:10332000002009900B9009A911A806F0A1FA00F05D
:10333000F5F81C2006F059FB1198006A41F21111B2
:1033400008420BD11198006A40F24441084205D16D
:1033500011980068400840001199086011A806F013
:103360006EF820460B2806D111A805F0E3FF11A83E
:1033700006F013F820E04FF4F8602041C0071BD599
:103380000020059001200690002007900F20089053
:1033900011A806F03BF80C2205A911A806F0ACF81C
:1033A000042111A806F08BFA002201211C2006F04E
:1033B0000CFB1C2006F018FB21B030BDE40B0020F4
:1033C0000054004070B598B004460D46164608A853
:1033D000402104F033FD0022102104A800F0CCFBB2
:1033E00000220C2101A800F0C7FBDFF8F4060168F9
:1033F00041F020010160006800F02000009000987A
:10340000DFF8200708900020059006904FF48050C8
:10341000049004A908A806F0C2F808A805F0A3FFC4
:103420000D2C1BD1DFF8C8060088042816DA00200E
:103430000A900C906D1E0995761E0B9680200E90BA
:10344000202001900020039001A908A806F010FA9E
:1034500008A805F06FFF08A805F09FFF18B070BD21
:103460005B3D3000F0B58FB007460E4615461C4652
:1034700001A8382104F0E2FC0D2F35D1DFF8A405B6
:103480000088032830D1DFF8A006016841F0200150
:103490000160006800F0200000900098DFF88C06C2
:1034A000019000200290304606F0B0FA41EC100B7B
:1034B00006F0BDFA51EC100B06F0C6FAC0B240029D
:1034C00003904FF6FF700690002009900A900B9031
:1034D0000C900D9001A806F0D5FA22466D1E2946E3
:1034E00001A806F018FB08E001A806F031FBDFF8A0
:1034F0003806016821F0200101600FB0F0BD4FF0E7
:103500008040C16841F01001C160016A41F48051FE
:103510000162016841F00101016070474FF0804095
:10352000C16821F01001C160016A21F4805101627B
:1035300001684908490001607047DFF8F4054168F7
:10354000C9060ED50168C9060BD56FF010014160A0
:10355000406BDFF8E0158A68821A4A6001220A602F
:103560008860704700B595B005A8402104F066FC5E
:103570000022102101A800F0FFFADFF89C05016885
:1035800041F400310160006800F4003000900098C0
:10359000DFF8A4050590002006904FF6FF70089014
:1035A0000020079009900A900B9005A805F02EFFC7
:1035B00000200190012002900C2003900020049034
:1035C000024601A905A805F097FF022105A806F00B
:1035D00076F900221146192006F0F7F9192006F0B5
:1035E00003FA002105A805F047FF15B000BD30B46F
:1035F000DFF848054168C9070AD50168C90707D53A
:10360000DFF80815CA69521CCA616FF001014160F8
:10361000DFF82C154868800712D5086880070FD599
:103620008A6ADFF8E8048389D31A1C46A4B241F2FF
:103630008835AC4200DAC38182816FF002004860B5
:1036400030BC7047300D002010B586B0DFF8900414
:10365000016841F010010160006800F01000009066
:10366000009800221146362006F0AFF9362006F009
:10367000BBF90F20ADF80400002002900920039050
:1036800000200490DFF8BC44204606F09CFA01A913
:10369000204606F0E4FA2046FEF779FF2046FEF7C2
:1036A00069FF06B010BD0A21B0FBF1F0002800D17F
:1036B0000120DFF8941400220A600A688242FCD3D9
:1036C000704710B5DFF87C442046FEF75CFF012808
:1036D00004D1DFF874040168491C01602046BDE88C
:1036E0001040FEF74CBF000004D2010870B505463B
:1036F000DFF85804006842F21071B0FBF1F40121C8
:10370000284606F091FB002C00E0641EFDD101214B
:10371000284606F075FB01284BD1DFF8344401211F
:10372000284606F07CFB206101462078002804D062
:103730000020207048016061A061E269E068002813
:1037400014D1A3691846001103EBD060A1EB6010FF
:10375000C318A3614B016361DFF8F8331B68A360F2
:10376000121825D560620120E06021E066693346C9
:103770001B1106EBD363A1EB63139A1A002A0ADD2F
:10378000A362012801D1012060600020E0609B1944
:1037900063614801A061DFF8BC231368A0681B1AAD
:1037A00040F2E930834203D3022060601068A060D9
:1037B00021622846BDE8704006F0EEBABCCB010895
:1037C000CCC501089010024010B586B0002214212B
:1037D00001A800F0D1F9D248016841F0020101606E
:1037E000006800F002000090009800200490039010
:1037F000092005908020019012200290BE4C01A962
:10380000204603F001FC102001900220029001A943
:10381000204603F0F9FB002201214D2006F0D5F8E7
:103820004D2006F0E1F806B010BD000000000020B9
:10383000A80C00201CB5AB48016841F48031016040
:10384000006800F4803000900098C34CC3482060AA
:103850000020A0624FF0805060604FF08070A06048
:10386000002020620120E062C020E0614FF4C040EF
:10387000A0610020E06001202061002060616062A2
:10388000102020638020A06300206063204606F0A3
:1038900031FA0121204606F0C7FA012002F059FA58
:1038A0002046BDE8164006F077BA1CB5AC4C014680
:1038B0000901615C8DF80010002801D0FF2016BDC1
:1038C000207802280ED120788DF80000E268002AC6
:1038D00006D0A168002000F00BF80120207001E064
:1038E000002020709DF8000016BD00000028004058
:1038F000002807D1002905D09948012303704160B1
:103900008160C26070470000000201407000000446
:1039100000221021924800F02FB90020904A16E0B2
:103920000220107011F1010F10D0491ED1600DE07E
:10393000107801280AD1D168002907D01078012811
:1039400004D150680028EBD0401E506001200028B0
:10395000EED07047E0B500220821684600F00CF96F
:103960005F48816841F001018160816801F00101D7
:1039700002910299016841F080510160006800F0F5
:103980008050029002980C20009000200190684620
:1039900003F0C2FC03F0F6FC07BD10B571480068E7
:1039A0005A4C71490968E26901EB0241694A13689E
:1039B0005B1C1360628800F0C5FDA08A002810D04F
:1039C000E08A00280DD100206849694B07E051F8D2
:1039D000202043F82020002241F82020401C1428F9
:1039E000F5D3A08AE082208A401C208280B2B0F504
:1039F0007A7F01DB00202082208B401C208380B254
:103A0000B0F57A7F04DB00202083608A401C60824E
:103A1000206AA0EBD010E18940182062BDE8104078
:103A20007BE700003201002018B5ABB0044600224D
:103A3000442105A800F0A0F800221421684600F0F7
:103A40009BF80022542116A800F096F803F05EFCC3
:103A50004848016821F018010160002C08D120209D
:103A6000059001200E904FF40050169000202690F3
:103A7000059840F01C000590012007900A900B90DB
:103A800000200C9080200D9000200F9005A806F0DB
:103A90000DFA0F20009000200190029003900490F6
:103AA0000146684606F050FC169840F4103040F08D
:103AB00040001690002021904FF0405028904FF485
:103AC00080702A9016A806F075FD4FF4007003F080
:103AD00051FB06F09EFE2CB010BD000000780040A7
:103AE000581002404810024000740040300002406C
:103AF00032010020C4D20108000400480000045034
:103B00000000214300018021080002403000002015
:103B100040000450082C014060100240002C01407D
:103B20004C100240001400405C1002400094004021
:103B30000C000040080D0020004401400C2C014006
:103B40000C44014000100040140D0020C00500206E
:103B500054000020180D0020300C002000400240CE
:103B6000F80C002024000040242C014038010020E3
:103B7000200300209010024062F30F2262F31F42E4
:103B800000B500BF130096469446103928BFA0E840
:103B90000C50FAD85FEA417C28BF0CC048BF40F8FF
:103BA000042BC90728BF20F8022B48BF00F8012BBF
:103BB00000BD0268531C036011707047B0B581EA04
:103BC000030C0CF0004C40F2FF7515EA11541DBFB8
:103BD00015EA1357AC42AF4239E0E41923EA4553E2
:103BE00043F48013C90241F0004141EA505EC7022C
:103BF0001100A7FB020200284FF00000EEFB01209D
:103C00004FF00001E3FB072118BF42F0010240180A
:103C100000214941E3FB0E01A4F580640F0302D2A9
:103C200052004041494154F101046CDD470872F1F2
:103C3000004250F1000051EB0451A1F580115CBF2E
:103C400041EA0C01B0BD4CEA05510020B0BD05EAC7
:103C50001357AC4214BFAF4241E050EA410E1CBFC3
:103C600052EA430E02E061460020B0BD24423C44CB
:103C70001BD15FEA070EF6D0090302BF0146002000
:103C8000AEF1140EB1FA81F7AEEB070401FA07FEAC
:103C90000C37C7F1200100FA07F7C8404EEA000EC2
:103CA00023EA455343F48013A2E733F00043B3FA09
:103CB00083F704BFB2FA82FE77440B3FE41BB7F1EF
:103CC000200E2FBF02FA0EF3BB40C7F1200E22FADE
:103CD0000EFE38BF43EA0E03BA40641C82E750EA86
:103CE000410E14BF52EA430E6FF000014FF400176B
:103CF00017EB430F8ABF194617EB410FB5E74CEAA4
:103D000005510020B0BDD4F10104B4F120070FDA51
:103D1000C4F12007520828BF42F0010210FA07F54B
:103D200001FA07F7E1BF2A43E0403843E1400FE0E2
:103D3000352C98DCC7F1200452EA400220FA07F241
:103D400018BF42F0010231FA07F0A1400A430021F6
:103D500072F1004250F1000051EB0C01B0BD0000C7
:103D600001F000428B1AA3F16051B1F5801F0ADB0C
:103D7000B1F17F6F1FD242EAC102C10071F100416F
:103D800042EB507070470B15C3F10903212B10D281
:103D9000890241EA905180020128494141F00041E5
:103DA00021FA03F0C3F12003994071F10041504121
:103DB0007047100070476FF0000013EB103F5CBFBE
:103DC000000E42EAC050704770B51226DFF8884BEB
:103DD000207816FB00F02044DFF8805B8188298082
:103DE000C1882981018929824189298300F10C0137
:103DF00004F5CA7006F0B6FD607816FB00F02044AA
:103E000000F170010A886A804A886A818A886A8219
:103E1000C988698300F1780104F5CF7006F0A2FD2E
:103E2000A07816FB00F0204400F184010A88AA80E3
:103E30004A88AA818A88AA82C988A98300F18C014C
:103E400004F5D47006F08EFDE07816FB00F6A0199C
:103E500000F1F0010A88EA804A88EA818A88EA82C9
:103E6000C988E98300F1F80104F5D970BDE8704014
:103E700006F078BD0020DFF8E81A0880DFF8E41AC1
:103E80000880DFF8D80A4FF0FF314163C162DFF8E4
:103E9000D80AC1604160704710B52DED028BB0EEBD
:103EA000408A0024062807D0C0F01081082800F0BE
:103EB000C680C0F0DB8009E100F0A8FD40F263118C
:103EC000884240DA9FED840AB4EE408AF1EE10FA9F
:103ED00043D49FED820AB4EE408AF1EE10FA52D438
:103EE0009FED7F0AB4EE408AF1EE10FA56D49FEDB2
:103EF0007D0AB4EE408AF1EE10FA5AD49FED7A0AA8
:103F0000B4EE408AF1EE10FA5ED49FED780AB4EE7A
:103F1000408AF1EE10FA62D49FED750AB4EE408A41
:103F2000F1EE10FA66D49FED730AB4EE408AF1EE1A
:103F300010FA6AD4DFF8340AD0ED1B0A90ED090AB2
:103F400008EE200A69E0FCF72CF90028B0EE480AD8
:103F500063D0FCF746F9040008D1DFF8100AD0ED71
:103F6000120A90ED000A08EE200A56E0012C08D152
:103F7000DFF8F809D0ED130A90ED010A08EE200AE7
:103F80004BE0022C08D1DFF8E409D0ED140A90EDE3
:103F9000020A08EE200A40E0032C08D1DFF8CC0921
:103FA000D0ED150A90ED030A08EE200A35E0042C46
:103FB00008D1DFF8B809D0ED160A90ED040A08EE32
:103FC000200A2AE0052C08D1DFF8A009D0ED170A55
:103FD00090ED050A08EE200A1FE0062C08D1DFF854
:103FE0008C09D0ED180A90ED060A08EE200A14E0BC
:103FF000072C08D1DFF87409D0ED190A90ED070AF3
:1040000008EE200A09E0082C94D1DFF86009D0ED11
:104010001A0A90ED080A08EE200ADFF8540980ED2C
:10402000008ADFF8480950F82410DFF848291160A9
:10403000483050F82400DFF84019086048E0DFF805
:104040002C099FED2D0AB4EE408AF1EE10FA06D548
:10405000D0ED1C0A90ED0A0A08EE200A38E0D0EDF7
:104060001D0A90ED0B0A08EE200A31E0DFED1E0A72
:10407000B4EE608AF1EE10FA08D5DFF8F008D0ED62
:104080001E0A90ED0C0A08EE200A21E0DFED1B0A63
:10409000B4EE608AF1EE10FA08D5DFF8D008D0ED62
:1040A0001F0A90ED0D0A08EE200A11E0DFED140A58
:1040B000B4EE608AF1EE10FA0AD5DFF8B008D0ED60
:1040C000200A90ED0E0A08EE200A01E09FEDD00ACA
:1040D000BDEC028B10BD0000010020410100C84270
:1040E0000100964301007A4401803B4501401C4693
:1040F0000150C3470124744921BCBE4C01409C4679
:10410000015043472DE9F0472DED048B04460D4641
:10411000DFF8546806EB8007D7F8008008EE908A35
:10412000D7F81C9044F6206AD04507D2484605F0DF
:104130006DFCFFF715FE00EE100A0DE0404605F09D
:1041400065FC02460B460020DFF8301806F016FC2E
:10415000FFF706FE00EE100A60EE000A20EE201ABD
:10416000B9F1650F01D24FF0650920460B2800F226
:104170004B81DFE810F00C000C000C003800380018
:104180003800D5001301D50013019E0084002000E3
:1041900002D19FEDB10A06E0012C02D19FEDAF0ADA
:1041A00001E09FEDAF0AB06B40F6A171884207D2E3
:1041B00040F6D2703168814205D2F16B814202D95A
:1041C000002028600BE0F8EE680A97ED1C1A60EEFC
:1041D000810A97ED141A00EE801A85ED001A0FF28D
:1041E000F870686010E1032802D19FED9E9B01E00A
:1041F0009FED9E9B18EE900A05F008FC53EC192BDE
:10420000FFF7DCFCFFF7ACFD08EE100A204605289E
:1042100002D19FED989B01E09FED989B18EE100A4C
:10422000FEF764F953EC192BFFF7C8FC804689466A
:1042300018EE100AFEF75AF902460B460020DFF886
:10424000401706F0BFFC02460B464046494606F0C2
:1042500095FBFFF785FD00EE100A052C03D1DFED7D
:10426000B40A30EE200AD7ED1C0A97ED141A00EEBE
:10427000801A85ED001A0FF248706860C4E0DFF81C
:104280000407006805F0C2FB0022DFF8FC3606F0E8
:1042900075FB06460F46404605F0B8FB32463B46E6
:1042A000FFF78CFCFFF75CFD28600FF22070686060
:1042B000AAE0D04503D84CF25030814507D24046A1
:1042C00005F0A4FBFFF74CFD08EE100A0DE0484690
:1042D00005F09CFB02460B460020DFF8A01606F016
:1042E0004DFBFFF73DFD08EE100ADFF89806006869
:1042F00005F08CFB0022DFF8903606F03FFB064607
:104300000F4618EE100AFEF7F1F832463B46FFF76B
:1043100055FCFFF725FD28600FF2B060686073E080
:10432000012000E0401C08280AD2DFF8601601EBEB
:104330008001D1ED000AF4EE400AF1EE10FAF1DB53
:104340002146062912D1401EDFF8401601EB8002FB
:10435000D2ED000A30EE600A503101EB8000D0ED62
:10436000000A92ED0A8A00EE208A0CE02046082816
:1043700009D1DFED700A30EE200ADFED6F0A9FED04
:104380006F8A00EE208AB0EE480A2046FFF784FDCF
:1043900085ED000A0FF21C60686035E0DFED681AF9
:1043A000B4EE610AF1EE10FA01D5002000E0012020
:1043B0000FF2486101EB8001D1ED001A21EE211AC4
:1043C0000FF2306101EB8001D1ED001A00EEA11A6D
:1043D0000FF2186101EB8001D1ED000A00EE201A06
:1043E0000FF2006101EB800090ED000A31EE000A4F
:1043F000D6ED1B0A30EE200A2046FFF74DFD85ED75
:10440000000A0FF2A4506860BDEC048BBDE8F08791
:104410000000000010B5DFF844158A8C134601EB4C
:1044200083018862DFF868454FF4F8601041C007E7
:104430000CD52068002807D0DFF8580502684FF433
:104440007A704243120900E001224A64FFF766F8DD
:104450000020206010BD00000080BB3D00A08C3F0C
:10446000E9A18641000000000000C03F00000000FC
:104470000000F03F00000000006A0841000000005A
:1044800000408F4070B50446DFF8D054AC84FEF78E
:10449000F1F82046FEF7E3FE4FF4F8602041C00734
:1044A00013D5204605EB8000806ADFF8EC148842C3
:1044B0008041C00FFEF78BFEDFF8E0040068DFF8F4
:1044C000E014096800EB0140A867688C022802D15B
:1044D00005F1800601E0DFF8CC6405EB40010B8AB2
:1044E00005F1080232F8102009882046FEF7BAFFCD
:1044F0002046FEF7F1FB2046FEF789FC9F220021B3
:104500002046FEF75FFF3246688C05EB4000018BCA
:104510002046FEF7E7FC688C05F1080131F8102011
:1045200035F810102046BDE87040FEF74BBF000084
:1045300000007AC4009661C989412A41E09E144B6B
:1045400000401C462DE9F84F04460D461646DFF89C
:104550000C74F96F611A4FF4487041434FF00A0828
:10456000D7F87890A5EB090908FB09F940F2E73A7A
:10457000DFF8F0B3388C002840F00181788C0528F2
:104580002CD1BBF80000002805D10846FFF742FFF8
:104590004046FFF777FFBBF800000A2804D1B9F5C1
:1045A000FA6F01D2FEF7ABFFBBF80000642800D120
:1045B000BD67BBF80000C82805D14846FFF72AFFB1
:1045C0000B20FFF75FFFBBF80000D22800D1FC678B
:1045D000BBF80000DB2801D1ABF800A0788C0028E4
:1045E0002DD1BBF80000002805D13046FFF712FF9F
:1045F0000220FFF747FFBBF80000322805D1304604
:10460000FFF708FF0120FFF73DFFBBF8000064281B
:1046100005D13046FFF7FEFE0020FFF733FFBBF861
:104620000000962805D13046FFF7F4FE0E20FFF774
:1046300029FFBBF80000C72801D1ABF800A0788C97
:10464000012801D0022823D1BBF80000002805D1A1
:104650003046FFF7DFFE0320FFF714FFBBF8000032
:10466000322805D13046FFF7D5FE0420FFF70AFFB8
:10467000BBF80000642805D13046FFF7CBFE0520CB
:10468000FFF700FFBBF80000952801D1ABF800A0B0
:10469000788C032837D1BBF80000002805D14846A4
:1046A000FFF7B8FE0820FFF7EDFEBBF800000A2870
:1046B00004D1B9F5FA6F01D2FEF721FFBBF8000073
:1046C000322800D1FC67BBF80000962805D1484687
:1046D000FFF7A0FE0620FFF7D5FEBBF80000A028DC
:1046E00004D1B9F5FA6F01D2FEF709FFBBF800005B
:1046F000C82800D1BD67BBF8000040F22B118842EA
:1047000001D1ABF800A0788C042838D1BBF80000A8
:10471000002805D14846FFF77DFE0720FFF7B2FECF
:10472000BBF800000A2804D1B9F5FA6F01D2FEF7F0
:10473000E6FEBBF80000642800D1BD67BBF80000AE
:10474000C82805D14846FFF765FE0920FFF79AFE05
:10475000BBF80000D22804D1B9F5FA6F01D2FEF7F8
:10476000CEFEBBF80000B0F5967F00D1BD67BBF868
:10477000000040F28F11884201D1ABF800A0388CC4
:10478000012873D1BBF8000000281ED0323825D094
:1047900032382AD032382FD00A3834D0283861D075
:1047A000643836D00A383BD028385BD064383DD0E6
:1047B0000A3842D00A3855D00A3844D00A384BD08B
:1047C0000A384FD009384FD050E008FB09F840466E
:1047D000FFF720FE0320FFF755FE47E03046FFF7C6
:1047E00019FE0420FFF74EFE40E03046FFF712FEB0
:1047F0000520FFF747FE39E03046FFF70BFE0820A3
:10480000FFF740FE32E0B9F5FA6F2FD2FEF777FEE0
:104810002CE04846FFF7FEFD0620FFF733FE25E0BB
:10482000B9F5FA6F22D2FEF76AFE1FE04846FFF79D
:10483000F1FD0720FFF726FE18E0B9F5FA6F15D253
:10484000FEF75DFE12E008FB09F84046FFF7E2FDC7
:104850000920FFF717FE09E0B9F5FA6F06D2FEF757
:104860004EFE03E0BD6701E0ABF800A0388C0328E2
:104870005FD1788C002833D1BBF8000000280AD023
:1048800064380FD0643814D0643819D064381ED01E
:10489000633823D024E03046FFF7BCFD0520FFF746
:1048A000F1FD1DE03046FFF7B5FD0420FFF7EAFDFE
:1048B00016E03046FFF7AEFD0320FFF7E3FD0FE003
:1048C0003046FFF7A7FD0120FFF7DCFD08E030468A
:1048D000FFF7A0FD0020FFF7D5FD01E0ABF800A039
:1048E000788C012825D1BBF80000002808D0643856
:1048F0000DD064380DD0643812D0633817D018E06A
:104900003046FFF787FD0620FFF7BCFD11E0BD67CD
:104910000FE04846FFF77EFD0520FFF7B3FD08E0F6
:104920003046FFF777FD0120FFF7ACFD01E0ABF863
:1049300000A0388C042805D1B88C0C2802D00C209B
:10494000FFF7A0FDBBF80000504502DB0120044941
:104950000880BDE8F18F0000B003002010010020A6
:10496000440000204000002020030020E00A002036
:10497000200D0020240D0020280D002065CDCD4104
:104980000000B0405000002000841E4170D3010898
:10499000080D00200C0D0020A0860100242C0140F1
:1049A0004C0000203CD10108754820006D482000D3
:1049B00048202000704620006E46200075462000EA
:1049C0005E2020004B5E20004D5E2000487A2000D3
:1049D0004B487A004D487A006D5620005620200042
:1049E0004B56200052B85EBF00049FC66F1203BA38
:1049F00048E1924017B7D137FBEAAAB9000000009E
:104A0000CB1D2032DFF8A80840797047DFF8A408F2
:104A100000887047F8B51120DFF89C48A18ADFF8BC
:104A20009458298000220EE004EB820303F58C7376
:104A3000DFF888681F6846F82270DFF884689B6E8C
:104A400046F82230521C082AEED3B1F5B17F00DDC2
:104A5000122000210FE004EB810202F59C72DFF8C6
:104A60006438166843F82160DFF85C38926E43F8CA
:104A70002120491C89B28142EDDBA088DFF84C1867
:104A800002460A2A02DD0A20088000E00880C822C7
:104A900004F11601DFF83808FDF7B8FC2088B0F5FE
:104AA0007A7F01DB3C2020802088DFF828180880EE
:104AB0006088002803D0032801D0042803D1DFF840
:104AC0001818088009E001460A39332905D2042163
:104AD000DFF80428118006F0E7F828880146B1F5D0
:104AE000B17F02DA218A372943D1002802D140F26E
:104AF00061102880DFF8E407E1880170017802295D
:104B000001DD022101700078012802D0022805D0C1
:104B100008E07820DFF8C817086003E09620DFF887
:104B2000C0170860DFF8BC072189017001780629E9
:104B300001DB00210170DFF8B01760890870087888
:104B4000002801D000200870DFF8A007A1890170BB
:104B50000178062901DB00210170DFF89407E18963
:104B600001700178082901DD00210170FBF71EFBAF
:104B700029E0E089372826D14FF4B0702880DFF88B
:104B80006407E18801700178062901DB00210170CA
:104B9000DFF85417208908700878002801D0002019
:104BA0000870DFF84807618901700178062901DB88
:104BB00000210170DFF83807A18901700178082908
:104BC00001DD00210170BDE8F140FFF7FDB80000F4
:104BD000F8B569460320FFF795FA02A90120FFF70F
:104BE00091FA9DED000ADFED730AB4EE600AF1EE72
:104BF00010FA0AD59DED020ADFED6F0AB4EE600AE5
:104C0000F1EE10FA01D5012000E0002005B000BD52
:104C1000F8B569460520FFF775FA02A90120FFF7EC
:104C200071FA9DED000ADFED650AB4EE600AF1EE5F
:104C300010FA0ADB9DED020ADFED5F0AB4EE600AAE
:104C4000F1EE10FA01D5012000E0002005B000BD12
:104C50007CB5DFF85C562879002825D158A20021C0
:104C60000846FDF760FF00BF5AA201210020FDF7B2
:104C70005AFF00206871FFF7ABFF002814D0012015
:104C800068710020FDF72CFF57A200210846FDF7B0
:104C900066FF002028706870FF22302105F10800AF
:104CA000FEF76AFF012028712879012840F08180F1
:104CB000FFF78EFF00286DD029780846022878DC9F
:104CC00005F108021720FCF7C7FA0446022C03D1AD
:104CD0002878401C287016E0002028706878401C56
:104CE0006870C0B202280EDD0020FDF7F9FE0FF655
:104CF000344200210846FDF732FF4FF4FA7001F00C
:104D000028F8002028712878022852DD0020287019
:104D10006870064601E0761CF6B2042E2EDA0022F8
:104D200008216846FEF728FF00240FE006EB460145
:104D300005EB810101EB80008068FDF7D7FBDDE921
:104D4000002300F06FFECDE90001641C2046C0B2D4
:104D50000228EBDDDDE900010022DFF8483B05F029
:104D60000DFEFEF7FDFF00EE100A30460246DFF8AA
:104D7000381B1720FCF788FD0400CCD0002C06D18E
:104D80000120DFF8281B08800220287173BD002055
:104D9000287173BD0020FDF7A3FE0FF688320021B5
:104DA0000846FDF7DCFE4FF4FA7000F0D2FF002059
:104DB000287173BD010048420100C84200247449B3
:104DC0002043616C6962726174696F6E20233020C8
:104DD0000000000020436C6F7365205469707320DD
:104DE000506C732100000000204B65657020636CDF
:104DF0006F7365200000000038B5BCB0044604F5B0
:104E00008C75242229466846FDF700FB402204F5F4
:104E1000A07109A8FDF7FAFA242204F5C07119A8B7
:104E2000FDF7F4FA402204F5D47122A8FDF7EEFA5A
:104E3000D4F8E8013290CC2269462846FDF7E6FA1C
:104E40003DB030BDF8B584B00027DFF86444207968
:104E5000022823D10FF6DC2239460846FDF763FE0F
:104E60000FF6E42201213846FDF75DFEFFF7D0FE84
:104E7000002813D03846FDF733FE0FF6E0223946FE
:104E80000846FDF76CFE384620706070FF22302126
:104E900004F10800FEF770FE03202071207903283A
:104EA00040F0BA80FFF7B4FE002800F0A38020781D
:104EB000032880F2B180E07801281BDCA07900286B
:104EC00010D0401EA0710120E07002A90620FFF75B
:104ED00019F9A078012840F03C810320A0713846E0
:104EE000A07036E10320A0710220E07002A9062024
:104EF000FFF708F904F1080221781820FCF7ACF953
:104F0000022803D12078401C207019E03846207018
:104F10006078401C6070C0B2032811DB3846FDF792
:104F2000DFFD0FF6002239460846FDF718FE4FF464
:104F3000967000F00EFF38462071DFF87019088077
:104F40002078032868DB384620706070054601E051
:104F50006D1CEDB2032D35DA05EB4500860004F13A
:104F60000800805910F1010FF2D000220821684694
:104F7000FEF702FE00270CE0A11901EB800080681B
:104F8000FDF7B4FADDE9002300F04CFDCDE90001A6
:104F90007F1C3846C0B20328EEDBDDE900010022A9
:104FA000DFF8003905F0EAFCFEF7DAFE00EE100A41
:104FB00028460246DFF8F0181820FCF765FC074683
:104FC0000A28C5D1002F02D10420207124E000203E
:104FD000FDF786FD0FF64C1200210846FDF7BFFDD8
:104FE0004FF4967000F0B5FE00202071DFF8BC1879
:104FF000088011E03846FDF773FD0FF62812394698
:105000000846FDF7ACFD4FF4FA7000F0A2FE3846FA
:105010002071DFF8981808802079042821D1002019
:10502000FDF75EFD0FF6441200210846FDF797FDDF
:10503000012242F210710020FEF75AFCDFF88008CE
:105040000168012909D0022953D00020FEF72DFC68
:105050000228F3D10620207103E000210160052021
:105060002071207905285ED14FF4F6760020FDF7F7
:1050700037FD0FF6081200210846FDF770FD4FF4CA
:10508000167000F066FE8C4F07F59270DFF8185826
:105090002969016069694160A969816089490A6873
:1050A00042614A6882618A68C261CA6802620A69AA
:1050B0004262496981620020FDF712FDFFF7A6FCFC
:1050C00040F26311884204DA3846FFF795FE4FF448
:1050D000F27632463946DFF8EC0700F064FF00282C
:1050E0000CD176482969C16069690161A96941618A
:1050F00011E00021016006202071B2E70020FDF7D9
:10510000EFFC0FF6880200210846FDF728FD4FF45A
:10511000167000F01EFE0020207160710220DFF882
:10512000A017086015E0062813D10020FDF7D8FC71
:105130000FF6680200210846FDF711FD4FF47A7062
:1051400000F007FE0020207160710220DFF8701768
:10515000086005B0F0BD000001460A46072A01DBE1
:1051600000207047062912D8DFE801F00406080A7B
:105170000C0E10000020704780207047C020704740
:10518000E0207047F0207047F8207047FC207047FF
:105190003EB50446FFF7E0FF05460522DFF8281775
:1051A0006846FDF733F920000ED0072C0CDA68466C
:1051B000417851EA65014170817851EA6501817059
:1051C000C17851EA6505C57001210846FDF766FC06
:1051D000002406E069460A5C40217820FDF7ACFB1C
:1051E000641C2046C0B20528F4DB37BD10B500248E
:1051F000DFF8D806008800EE100AB8EE400A10EE7C
:10520000100AFDF773F9DFF8C826DFF8C836FEF795
:10521000D5FC2246DFF8C036FEF7D0FC2246DFF888
:10522000BC3605F0ABFBFEF79BFD00EE100ADFF885
:10523000B006DFED1B0AB4EE600AF1EE10FA01D5FC
:1052400080ED000A90ED000ADFED160AB4EE600A68
:10525000F1EE10FA0FDB9FED141A30EE011ADFEDBC
:10526000131A81EE211AF1EE081A21EE211ABDEE71
:10527000C11A11EE104A2046C0B2002805D1B4EE82
:10528000600AF1EE10FA00DB01242046C0B20728C4
:1052900000DB06242046C0B2BDE8104078E70000DD
:1052A0009A99894033335340333353C0CCCC0C3FAD
:1052B000C4050020320D00200406002070030020E9
:1052C00090030020E00A0020280B0020FE050020AB
:1052D00090010020FC05002000060020340D002075
:1052E00070000020B0030020B1030020B2030020B2
:1052F000B30300202DE9F84F2DED028B8EB0002076
:105300000146DFF8E0251180DFF8A0950121A9F81A
:105310000010ADF8080005E0012801D1FFF792FD6B
:1053200000202880DFF8A405008800EE100AB8EEFF
:10533000400A10EE100AFDF7D9F80022DFF8983580
:10534000FEF73CFC0022DFF8943505F017FBFEF772
:1053500007FD08EE100A002005F0B3FDFF2803D07A
:105360000020DFF884150880B0EE080AB4EE408A09
:10537000F1EE10FA07D4DFF874050088DFF868153D
:105380000988884201D2FDF707F9DFF834552C6807
:10539000002C00F07F80FFF735FB002875D1012C31
:1053A00027D1DFF84005008800280BD1B9F80000AC
:1053B000401CA9F8000080B2062866DB0020A9F88E
:1053C000000062E002280ED1B9F80000401CA9F8E4
:1053D000000080B2042802DB0020A9F800000D20A4
:1053E000FFF750F851E003284FD10020A9F8000042
:1053F0004BE0022C49D10020A9F80000DFF8E4447A
:105400002088401C208080B2042801DB00202080FE
:105410002088002806D10FF2945200210846FDF79B
:105420009EFB1FE0012806D10FF290520021084692
:10543000FDF795FB16E0032806D10FF290520021EC
:105440000846FDF78CFB0DE002280BD10FF28C52C1
:1054500000210846FDF783FB0020A9F800000D207D
:10546000FFF710F84FF47A7000F073FC0FF27C52E3
:1054700000210846FDF773FB4FF4FA7000F069FC59
:105480002088032801D1FEF7F5FC00202860DFF812
:1054900058140880DFF85804008804281DD1012022
:1054A00005F00FFD014689B2042918DABDF808108D
:1054B000024692B2914212D0ADF8080080B2FDF7D8
:1054C0008FFA0020FDF70CFB0020DFF81C14088089
:1054D0000120DFF82014088001E0FDF781FADFF8F1
:1054E0001454288800283FF41DAF032703A80FF2A7
:1054F0000C511422FCF79AFFDFF8FC63DFF8E48319
:10550000B8F80000002840F0D880B9F8000005285D
:105510006AD8DFE800F012283D4C5703F06ADFF844
:10552000DC13884201D30B2400E00A24706CDFF8FE
:10553000D013884258D3002756E040F6D3707168E4
:10554000814201D3022404E031688142A441E44352
:10555000E40FB16B032901D3012745E0B168814213
:1055600042D3022740E0306940F67561884201D39A
:10557000052406E040F27311884201D3042400E0C0
:105580003C46706940F6D37188422DD300272BE04A
:105590003069C100316000247169421AB2FBF1F137
:1055A000042902D8B0F57A6F1ED327461CE0306A72
:1055B000B0F57A7F01D2082400E00624142813D223
:1055C000022711E00724D6F81CA0706AAAEB00009D
:1055D00005F0EAFC64214843B0FBFAF0062803D248
:1055E000C848824500D200276946204680B2FEF7AF
:1055F00089FDB9F800400322C348214600EB810130
:1056000003A8FCF703FF022C13D19DED000ADFED88
:10561000A20AB4EE600AF1EE10FA0AD50098FCF77F
:1056200065FF4FF06632B94B00F0FCF9FEF798FBCE
:105630000090002C06D17068022803D230685B28E5
:1056400000D30027012C09D19DED000ADFED930A5C
:10565000B4EE600AF1EE10FA00DB00279DED000ABF
:10566000B5EE400AF1EE10FA01D500200090032FAC
:105670000AD00822A64807EB470100EB81010DF193
:105680000F00FCF7C3FE06E001999DED000A0DF145
:105690000F0005F08DFCFFF7A9FD81A2002108464F
:1056A000FDF741FA03A805F021FD03A920220A54C1
:1056B00003AA00210C20FDF752FAB8F800000128D7
:1056C00040F0C18008A80FF248311422FCF7AEFE6A
:1056D00003AC4FF003087069252828D23769D6F843
:1056E0001CB0706AA0EB0B0005F05EFC00EB8001C3
:1056F0004800B0FBFBF000280BD00720804640F2AA
:1057000073118F4202D34FF0040A4FE04FF0030AA7
:105710004CE040F67560874201D3052046E040F238
:105720007310874201D3042040E040463EE0316AD6
:10573000B1F57A7F02D24FF0080A01E04FF0060A75
:105740003669B6F57A6F22D2311AB1FBF0F004282F
:1057500018D2424656A103A8FCF768FE0DF10F04CB
:1057600000EE106AB8EE400A6A48D0ED000A20EE5A
:10577000200ADFED500A20EE200A8DED000A66486F
:10578000019016E069460420FEF7BCFC11E0B0F57C
:105790007A6F01D9504609E04FF00708B0F5FA6F6B
:1057A00001D2052002E050464FF0050A6946FEF797
:1057B000A9FCFFF71BFD40A200210846FDF7B3F945
:1057C0009DED000AB5EE400AF1EE10FA01D5002079
:1057D000009001999DED000A204605F0E9FB03AC1D
:1057E00003A805F083FC2021215403AA00210C20EA
:1057F000FDF7B5F9B8F1070F7FF492AD6946504651
:1058000080B2FEF77FFC01999DED000A08A805F023
:10581000CFFB08A805F06AFC062804D208A805F00A
:1058200065FC202121549DED000ADFED240AB4EE31
:10583000600AF1EE10FAFFF673AD08AA01213C20D0
:10584000FDF771F96CE502281AD1B9F8004005227C
:10585000324804EB440100EB410103A8FCF7D6FDFC
:1058600006222F4804EB840100EB41010DF11200E8
:10587000FCF7CCFD03AA00210846FDF770F94FE5BF
:1058800003287FF44DADB9F8000000287FF444AD43
:10589000FFF7DEF944E50000010048428196984A8E
:1058A0004D00000000000840DC090020320100200B
:1058B00044783A0000803B3F41000000CDCCCC3D15
:1058C0005800002000F000082CD60108300000200D
:1058D000BE9F1A2FDD24F03F00C32E4000408F40B2
:1058E0001C0D00203001002042000020FC0500209B
:1058F000000600204400002020030020A1252600EF
:1059000001E1F50581841E00A4D50108662640C08A
:105910003CD5010890030020D8490108F8D50108BA
:10592000440500202044617461206572726F72200A
:10593000000000002043616C6962726174696F6EDF
:105940002023312000000000204F70656E20546934
:10595000707320506C7321200000000020204B65E4
:105960006570206F70656E20000000002053617626
:105970006520646174613F200000000020205361B5
:10598000766520646174612000000000202053616E
:1059900076652065727220202000000020204E6F66
:1059A000207361766520202000000000204D656195
:1059B0007375726520202020000000002049646576
:1059C0006E746966792020200000000043616C69D4
:1059D00062726174696F6E20000000002053696775
:1059E0006E616C2047656E200000000020202020A2
:1059F0002020202020202020000000002020202027
:105A00002020202020202020000000000000000096
:105A100000202020202000000000000000000000E6
:105A20000000000070B44FF0004591EA030F45F10B
:105A3000D1806B40841A71EB030604D26E40001BC8
:105A4000B141121973414FF4001C1CEB410F34BFDC
:105A50007CEB430683E00C0DA4EB1356362E00F3CB
:105A60007C80012E45EAC32341DC43EA525312BF36
:105A7000D20292025B08240545EAC12141EA505155
:105A8000D2EBC020994125D407D1B0FA80F610FAA4
:105A900006F162D00020203608E0B1FA81F6B1406C
:105AA000C6F1200220FA02F21143B0404FEAF4742A
:105AB000B4EB465434F001064FEA74040AD8D6F524
:105AC0000016760D04F00044F04061FA06F25040F2
:105AD000F1404840C00A40EA415021F0004128BF4F
