:020000040801F1
:10000000C81000204DCD010831CC010829CC0108D1
:100010002BCC01082DCC01082FCC010800000000DA
:1000200000000000000000000000000033CC0108C8
:1000300035CC01080000000037CC010839CC01089C
:1000400079CD01087DCD010881CD010885CD01085C
:1000500089CD01088DCD010891CD010895CD01080C
:1000600099CD01089DCD0108A1CD0108A5CD0108BC
:10007000A9CD0108ADCD0108B1CD0108B5CD01086C
:10008000B9CD0108BDCD0108C1CD0108C5CD01081C
:10009000C9CD0108CDCD0108D1CD0108D5CD0108CC
:1000A000D9CD010841CC0108DDCD0108E1CD010821
:1000B0003DCC01080000000000000000E5CD010873
:1000C000E9CD01080000000000000000EDCD0108AE
:1000D00000000000F1CD0108F5CD0108000000008E
:1000E000F9CD0108FDCD010800000000000000006E
:1000F0000000000000000000000000000000000000
:1001000000000000000000000000000001CE010817
:1001100000000000000000000F31010805CE0108BA
:1001200009CE01080DCE010811CE010815CE010837
:1001300019CE0108000000000000000000000000CF
:100140001DCE010821CE010825CE010829CE0108C7
:100150002DCE010831CE010835CE010839CE010877
:100160003DCE010841CE010845CE01080000000047
:1001700049CE010845CC0108000000000000000045
:100180004DCE010851CE010855CE0108DFF870169A
:1001900000EB4000085C152801DA002070470920B8
:1001A000704770B50446022956D12078104201D01C
:1001B000072070BD492801D03A2801D1002070BD28
:1001C000002500E06D1C2E46F6B2152E3ED22846C4
:1001D000C0B2FFF7DBFF0028F4D12078DFF8241647
:1001E0002A46D2B202EB4202895C8142EAD1272838
:1001F0002CD16078122829D0132827D0142825D094
:10020000152823D0162821D017281FD018281DD034
:1002100019281BD01A2819D01B2817D01C2815D034
:100220001D2813D01E2811D01F280FD020280DD034
:1002300021280BD0222809D0232807D0242805D034
:10024000252803D0262801D0072070BD152E01D304
:10025000072070BD002070BD072070BD142800D994
:10026000704700B585B0DFE810F015002F00490099
:1002700063007D009700B100CB00E50019017E010D
:100280009701C901FB0133014C01140235026D02D3
:100290009E026501062940F09D8210EE100A01F0D1
:1002A0004BFE02460B460FF2A051684601F068FE75
:1002B0006A460021084602F05AF90FF24C52012119
:1002C000002002F054F985E2062940F0838210EE06
:1002D000100A01F031FE02460B460FF26C516846DF
:1002E00001F04EFE6A460021084602F040F90FF286
:1002F00020520121002002F03AF96BE2062940F079
:10030000698210EE100A01F017FE02460B460FF24A
:100310003851684601F034FE6A460021084602F072
:1003200026F90FF2F4420121002002F020F951E2F7
:10033000062940F04F8210EE100A01F0FDFD024642
:100340000B460FF20451684601F01AFE6A4600217E
:10035000084602F00CF90FF2C8420121002002F019
:1003600006F937E2062940F0358210EE100A01F056
:10037000E3FD02460B460FF2D041684601F000FE55
:100380006A460021084602F0F2F80FF29C42012171
:10039000002002F0ECF81DE2062940F01B8210EE6E
:1003A000100A01F0C9FD02460B460FF29C41684657
:1003B00001F0E6FD6A460021084602F0D8F80FF287
:1003C00070420121002002F0D2F803E2062940F039
:1003D000018210EE100A01F0AFFD02460B460FF24B
:1003E0006841684601F0CCFD6A460021084602F0EB
:1003F000BEF80FF244420121002002F0B8F8E9E112
:10040000062940F0E78110EE100A01F095FD024642
:100410000B460FF23441684601F0B2FD6A460021F6
:10042000084602F0A4F80FF218420121002002F061
:100430009EF8CFE10846062816D110EE100A01F00A
:100440007BFD02460B460FF20041684601F098FD25
:100450006A460021084602F08AF80FF2F8320121BC
:10046000002002F084F8B5E1082940F0B38110EED5
:10047000100A01F061FD02460B460FF2E8316846B2
:1004800001F07EFD6A460021084602F070F80FF286
:10049000CC320121002002F06AF89BE1082940F0EB
:1004A000998110EE100A01F047FD02460B460FF24B
:1004B000B431684601F064FD6A460021084602F046
:1004C00056F80FF2AC320121002002F050F881E121
:1004D000072940F07F8110EE100A01F02DFD024641
:1004E0000B460FF29431684601F04AFD6A4600213E
:1004F000084602F03CF8B8A20121002002F037F8CB
:1005000068E1072940F0668110EE100A01F014FD41
:1005100002460B460FF26031684601F031FD6A4633
:100520000021084602F023F8ACA20121002002F0CD
:100530001EF84FE10A2940F04D8110EE100A01F03B
:10054000FBFC02460B460FF23C31684601F018FDF9
:100550006A460021084602F00AF8A1A20121002003
:1005600002F005F836E1032940F0348110EE100A5C
:1005700001F0E2FC02460B460FF21431684601F02E
:10058000FFFC6A460021084601F0F1FF95A2012117
:10059000002001F0ECFF1DE10846032815D110EE04
:1005A000100A01F0C9FC02460B460FF2E42168462E
:1005B00001F0E6FC6A460021084601F0D8FF8AA255
:1005C0000121002001F0D3FF04E1042940F0028161
:1005D00010EE100A01F0B0FC02460B460FF2BC21EF
:1005E000684601F0CDFC6A460021084601F0BFFFD5
:1005F0007DA20121002001F0BAFFEBE008460528AA
:1006000015D110EE100A01F097FC02460B460FF2CE
:100610009821684601F0B4FC6A460021084601F0C2
:10062000A6FF72A20121002001F0A1FFD2E004295F
:1006300040F0D08010EE100A01F07EFC02460B461E
:100640000FF25821684601F09BFC6A4600210846DB
:1006500001F08DFF65A20121002001F088FFB9E0C3
:10066000052940F0B78010EE100A01F065FC024643
:100670000B460FF23421684601F082FC6A460021E5
:10068000084601F074FF5AA20121002001F06FFF1B
:10069000A0E0002940F09E8010EE100A01F04CFC12
:1006A00002460B460FF21421684601F069FC6A46C7
:1006B0000021084601F05BFFDFF84C0902680FF2E9
:1006C000F411684601F05CFC6A460121002001F04B
:1006D0004EFF7FE008001DD110EE100A01F02CFC47
:1006E00002460B460FF2D411684601F049FC6A46F7
:1006F0000021084601F03BFFDFF80C0902680FF209
:10070000C811684601F03CFC6A460121002001F056
:100710002EFF5FE001295DD110EE100A01F00CFC04
:1007200002460B460FF2A811684601F029FC6A4602
:100730000021084601F01BFF2EA20121002001F03C
:1007400016FF47E00846022815D110EE100A01F006
:10075000F3FB02460B460FF28411684601F010FCD1
:100760006A460021084601F002FF23A20121002071
:1007700001F0FDFE2EE001292CD110EE100A01F04F
:10078000DBFB02460B460FF24811684601F0F8FB0E
:100790006A460021084601F0EAFE17A20121002066
:1007A00001F0E5FE16E0022914D110EE100A01F066
:1007B000C3FB02460B460FF22411684601F0E0FB32
:1007C0006A460021084601F0D2FE0CA20121002059
:1007D00001F0CDFE05B000BD4C3100004C320000F0
:1007E000462020005230200052312000523220009A
:1007F000523320005631200056322000563320005C
:10080000C0000020C10000204331204358000000F8
:100810004332204358000000433320435800000077
:100820004334204358000000433520435800000063
:10083000433620435800000043372043580000004F
:100840004338204358000000435820252E326620AC
:100850000000000043392043580000004339204382
:1008600048000000434820252E326620000000008A
:1008700043313020434800004C5820252E3266205A
:1008800000000000465820252E326620000000009F
:10089000524C20252E32662000000000524D2025AB
:1008A0002E32662000000000524820252E3266209D
:1008B0000000000056302025642020004C562025E2
:1008C0002E326620000000005631202564202000D2
:1008D0004D5620252E326620000000004856202567
:1008E0002E3266200000000070B52DED028B05460B
:1008F0000E46B0EE408AFFF7B1FC0B2E1FD8DFE8A2
:1009000016F0B702FF0213034601BE0126020C00D7
:100910001E01F6001E00A302A30228001CD19FEDB9
:10092000A60AB4EE408AF1EE10FA07D5BBEE090A2A
:10093000B4EE408AF1EE10FA80F21D8303242046C3
:10094000C0B2032803D10020DFF8941B08702046B2
:10095000C0B2BDEC028B70BD01280ED19FED970A8D
:10096000B4EE408AF1EE10FAE8D59FED950AB4EEA8
:10097000408AF1EE10FAE1DBFDE202280ED19FED94
:10098000910AB4EE408AF1EE10FAD7D59FED8E0AA7
:10099000B4EE408AF1EE10FAD0DBECE203280ED17F
:1009A0009FED8A0AB4EE408AF1EE10FAC6D59FEDAB
:1009B000880AB4EE408AF1EE10FABFDBDBE20428CD
:1009C0000ED19FEDB90AB4EE408AF1EE10FAB5D51A
:1009D0009FEDB60AB4EE408AF1EE10FAAEDBCAE241
:1009E00005280ED19FEDB20AB4EE408AF1EE10FA5E
:1009F000A4D59FEDB00AB4EE408AF1EE10FA9DDB6B
:100A0000B9E206280ED19FEDAC0AB4EE408AF1EEB1
:100A100010FA93D59FEDA90AB4EE408AF1EE10FAD0
:100A20008CDBA8E207280FD19FEDA50AB4EE408A1F
:100A3000F1EE10FA82D59FEDA30AB4EE408AF1EEF2
:100A400010FAFFF67BAF96E2082853D0172D7FF4FB
:100A500076AFDFF88C5A2C78002C04D100221021BC
:100A6000281D03F097F8641C2C702046C0B20128A2
:100A700000F00081D5ED018AF5EE408AF1EE10FA22
:100A800002D5B1EE680A01E0B0EE680ADFEDC70AF0
:100A9000B4EE600AF1EE10FA0EDB10EE100A01F06F
:100AA0004BFADFF8402ADFF8403A03F0ADF803F0E4
:100AB00081F900EE100A01E0B6EE000A78EEC00AF5
:100AC000B4EE608AF1EE10FAFFF638AF38EE800A25
:100AD000B4EE480AF1EE10FAFFF630AF85ED018A68
:100AE000E4B2032CC0F247820020287043E228467B
:100AF000082810D19FEDC50AB4EE408AF1EE10FA35
:100B00007FF51CAF9FEDC20AB4EE408AF1EE10FAF9
:100B1000FFF614AF2FE2092D7FF411AF9FEDC70A46
:100B2000B4EE408AF1EE10FA7FF508AF9FEDC40AEB
:100B3000B4EE408AF1EE10FAFFF600AF1BE2284651
:100B40000E2810D19FEDBF0AB4EE408AF1EE10FAE4
:100B50007FF5F4AEB9EE000AB4EE408AF1EE10FA79
:100B6000FFF6ECAE07E20F2D7FF4E9AE9FEDC60A6B
:100B7000B4EE408AF1EE10FA7FF5E0AE9FEDC30AC5
:100B8000B4EE408AF1EE10FAFFF6D8AEF3E1284653
:100B90000A281FD19FEDBE0AB4EE408AF1EE10FA8A
:100BA0007FF5CCAEBBEE040AB4EE408AF1EE10FA4B
:100BB000FFF6C4AEDFE100BF010070420100344324
:100BC000000048420100E143000016430180A244B6
:100BD00000002F440B2855D0162D7FF4B0AEDFF85F
:100BE00000592C78002C04D100221021281D02F07D
:100BF000D1FF641C2C709FEDBF0AB4EE408AF1EE69
:100C000010FABFF69BAEE4B2012C33D0D5ED018AC9
:100C1000F5EE408AF1EE10FA02D5B1EE680A01E075
:100C2000B0EE680ADFED610AB4EE600AF1EE10FA88
:100C30000EDB10EE100A01F07FF9DFF8A828DFF8CC
:100C4000A83802F0E1FF03F0B5F800EE100A01E069
:100C5000B6EE000A78EEC00AB4EE608AF1EE10FA41
:100C6000FFF66CAE38EE800AB4EE480AF1EE10FAE8
:100C7000FFF664AE284680ED018A02245FE628462E
:100C80000B2821D19FEDBD0AB4EE408AF1EE10FA97
:100C90007FF554AE9FEDBA0AB4EE408AF1EE10FA39
:100CA000FFF64CAE67E100BF01404E4500C028454D
:100CB00001E02B4600A00C4601D8D64700C8AF473C
:100CC0000147864900BA5B490C2800F08D80162D3B
:100CD0007FF435AEDFF808482078012833D0D4ED12
:100CE000028AF5EE408AF1EE10FA02D5B1EE680AFA
:100CF00001E0B0EE680ADFED2D0AB4EE600AF1EE15
:100D000010FA0EDB10EE100A01F016F9DFF8D42706
:100D1000DFF8D43702F078FF03F04CF800EE100A49
:100D200001E0B6EE000A78EEC00AB4EE608AF1EE99
:100D300010FAFFF603AE38EE800AB4EE480AF1EE80
:100D400010FAFFF6FBAD84ED028A0224F7E528468F
:100D5000162847D1DFF888472578012D03D184ED87
:100D6000038A0224EBE5D4ED038AF5EE408AF1EE26
:100D700010FA02D5B1EE680A01E0B0EE680ADFEDC4
:100D80000B0AB4EE600AF1EE10FA11DB10EE100A55
:100D900001F0D2F8DFF84C27DFF84C3702F034FFCF
:100DA00003F008F800EE100A04E000BF0100803FE5
:100DB000B6EE000A78EEC00AB4EE608AF1EE10FAE0
:100DC000FFF6BCAD38EE800AB4EE480AF1EE10FA38
:100DD000FFF6B4AD84ED038A032DC0F2CC80002071
:100DE0002070C8E00C2815D19FED780AB4EE408A37
:100DF000F1EE10FA7FF5A2AD9FED750AB4EE408AD0
:100E0000F1EE10FAFFF69AADB5E000BFE1792F4B95
:100E100020B3014B0D2D7FF492AD9FED6E0AB4EE21
:100E2000408AF1EE10FA7FF589AD9FED6B0AB4EEC2
:100E3000408AF1EE10FAFFF681AD9CE0F1CED14D83
:100E400050A9AB4D0100C040142D7FF478AD9FED4B
:100E5000630AB4EE408AF1EE10FA7FF56FAD9FEDB4
:100E6000600AB4EE408AF1EE10FAFFF667AD82E058
:100E7000284616282BD1DFF868060178012909D108
:100E800080ED048A02245AE501803B460000FA45C1
:100E90000100A04190ED040ADFED520A70EE200A35
:100EA000B4EE608AF1EE10FAFFF648ADDFED4E0ABF
:100EB00030EE200AB4EE480AF1EE10FAFFF63EAD2D
:100EC00080ED048A032956DB0021017053E01028CD
:100ED00012D19FED460AB4EE408AF1EE10FA7FF58A
:100EE0002DADB0EE000AB4EE408AF1EE10FAFFF636
:100EF00025AD40E001004842112D7FF420AD02E015
:100F00002846112824D19FED3A0AB4EE408AF1EE2A
:100F100010FA7FF513AD9FED370AB4EE408AF1EE7B
:100F200010FAFFF60BAD26E02846132810D19FEDEE
:100F3000320AB4EE408AF1EE10FA7FF5FFAC9FED75
:100F40002F0AB4EE408AF1EE10FAFFF6F7AC12E089
:100F5000122D7FF4F4AC9FED2A0AB4EE408AF1EE34
:100F600010FA7FF5EBAC9FED270AB4EE408AF1EE64
:100F700010FAFFF6E3AC0224E1E4000001000243B2
:100F800000008C4210B52DED028B1446B0EE408A65
:100F9000FFF7AAFC022803D184ED008A022000E0BA
:100FA0000320BDEC028B10BD4FF0FF31164A42F812
:100FB0002010DFF8342A42F820100020DFF82C1A25
:100FC0000880DFF8E01C0880704700000118264602
:100FD0000068124601E87D4900606A490144C5473E
:100FE000005CC1479A9999BE9A99993E01002041A7
:100FF0000100C8430000AA430128204700581847B1
:101000000160904500A0824544030020FEB50646DD
:101010000C461546172800F25082DFE810F0180041
:1010200018001800180018001800180018003600E2
:101030006800A400C200F4003001860086004E0162
:101040006C019E01D001ED014E0224025002DFF836
:10105000587C3878002806D10620FFF7A5FF01202C
:1010600038700420FEBD6946062003F025F89DED8A
:10107000000A204605EB800206213046FFF782FF7A
:101080000146022940F01A82E5E1DFF81C6C307855
:10109000002809D10620FFF787FF0820FFF784FF0B
:1010A000012030700420FEBD6946062003F004F8DC
:1010B000204605EB80059DED000A2A460621082002
:1010C000FFF760FF0146022940F0F88169460820D9
:1010D00002F0F2FF9DED000A05F10C02082108461E
:1010E000FFF750FF0146022940F0E881B3E1DFF845
:1010F000B86B3078002806D10820FFF755FF012093
:1011000030700420FEBD6946082002F0D5FF9DED39
:10111000000A204605EB800208210920FFF732FF74
:101120000146022940F0CA8195E1DFF87C7B3878DE
:10113000002806D10720FFF737FF01203870042070
:10114000FEBD6946072002F0B7FF9DED000A20466C
:1011500005EB800207213046FFF714FF0146022904
:1011600040F0AC8177E1DFF8406B3078002806D1A1
:101170000320FFF719FF012030700420FEBD6946EF
:10118000032002F099FF9DED000A204605EB800246
:1011900003210A20FFF7F6FE0146022940F08E8166
:1011A00059E1DFF8046B3078002809D10320FFF7FC
:1011B000FBFE0420FFF7F8FE012030700420FEBD86
:1011C0006946032002F078FF204605EB80059DED7F
:1011D000000A2A4603210B20FFF7D4FE014602290C
:1011E00040F06C816946042002F066FF9DED000A24
:1011F00005F10C0204210B20FFF7C4FE0146022971
:1012000040F05C8127E1DFF8A06A3078002809D13E
:101210000420FFF7C9FE0520FFF7C6FE012030704D
:101220000420FEBDDFF8C00A90ED040AB8EE400AC3
:10123000DFF8B80A80ED000A6946042002F03CFF9E
:10124000204605EB80059DED000A2A4604210C206E
:10125000FFF798FE0146022940F0308169460520DB
:1012600002F02AFF9DED000A05F10C0205210C2079
:10127000FFF788FE0146022940F02081EBE0DFF80D
:10128000286A3078002806D10520FFF78DFE01205E
:1012900030700420FEBD6946052002F00DFF9DED73
:1012A000000A204605EB800205210D20FFF76AFEAB
:1012B0000146022940F00281CDE0DFF8EC69307888
:1012C000002806D10020FFF76FFE012030700420B7
:1012D000FEBD6946002002F0EFFE9DED000A2046AB
:1012E00005EB800200211020FFF74CFE0146022989
:1012F00040F0E480AFE0DFF8B0693078002809D131
:101300000020FFF751FE0120FFF74EFE0120307054
:101310000420FEBD6946002002F0CEFE204605EB0B
:1013200080059DED000A2A4600211120FFF72AFEC4
:101330000146022940F0C2806946012002F0BCFE4D
:101340009DED000A05F10C0201211120FFF71AFEA4
:101350000146022940F0B2807DE0DFF84C69307828
:10136000002809D10120FFF71FFE0220FFF71CFE15
:10137000012030700420FEBD6946012002F09CFE71
:10138000204605EB80059DED000A2A46012112202A
:10139000FFF7F8FD0146022940F0908069460220DF
:1013A00002F08AFE9DED000A05F10C0202211220D6
:1013B000FFF7E8FD0146022940F080804BE0DFF8AE
:1013C000E8683078002806D10220FFF7EDFD012003
:1013D00030700420FEBD6946022002F06DFE9DEDD6
:1013E000000A204605EB800202211320FFF7CAFD08
:1013F0000146022962D12EE0DFF8AC68307800287F
:1014000009D10B20FFF7D0FD0A20FFF7CDFD012009
:1014100030700420FEBD69460A2002F04DFE2046D1
:1014200005EB80059DED000A2A460A211420FFF7EE
:10143000A9FD0146022941D169460B2002F03CFE7C
:101440009DED000A05F10C020B211420FFF79AFD17
:101450000146022932D1022C2FDB0020DFF8481888
:1014600008700520FEBD6946032002F025FE05EB4D
:1014700084049DED000A224603211620FFF782FD19
:10148000014602291AD19DED000A04F10C02042143
:101490001620FFF777FD014602290FD16946052086
:1014A00002F00AFE9DED000A04F118020521162043
:1014B000FFF768FD0146022900D10220FEBD694602
:1014C000062002F0F9FD9DED000A05EB84020621DD
:1014D0001720FFF757FD01460229EED0FEBD0000A0
:1014E0007C0C00209A9999999999A93F172800F2A4
:1014F0002381DFE810F018002000280030003800B9
:10150000400048005000580067007F0087009600A8
:10151000A5006F007700AC00B300C100CF00D6007B
:101520002101E4000501002A40F00681DFF8B0093E
:1015300080ED000A00E1002A40F0FE80DFF8A009FB
:1015400080ED010AF8E0002A40F0F680DFF890090B
:1015500080ED020AF0E0002A40F0EE80DFF880091A
:1015600080ED030AE8E0002A40F0E680DFF8700929
:1015700080ED040AE0E0002A40F0DE80DFF8600938
:1015800080ED050AD8E0002A40F0D680DFF8500947
:1015900080ED060AD0E0002A40F0CE80DFF8400956
:1015A00080ED070AC8E0100004D1DFF8340980EDAF
:1015B000080AC1E0012A40F0BF80DFF8240980ED6D
:1015C000090AB9E0002A40F0B780DFF8140980ED7D
:1015D0000A0AB1E0002A40F0AF80DFF8040980ED8C
:1015E0000C0AA9E0002A40F0A780DFF8F40880ED9B
:1015F0000D0AA1E0002A40F09F80DFF8E40880EDAA
:10160000100A99E0100004D1DFF8D40880ED110A27
:1016100092E0012A40F09080DFF8C40880ED120AC1
:101620008AE0100004D1DFF8B80880ED130A83E0E7
:10163000012A40F08180DFF8A80880ED140A7BE0E1
:10164000002A79D1DFF8980880ED150A74E0002AA5
:1016500072D1DFF88C0880ED160A6DE0100004D11D
:10166000DFF87C0880ED170A66E0012A64D1DFF814
:10167000700880ED180A5FE0100004D1DFF8600800
:1016800080ED190A58E0012A56D1DFF8540880EDA0
:101690001A0A51E0002A4FD1DFF8440880ED1B0AF6
:1016A0004AE0100004D1DFF8380880ED0E0A43E06C
:1016B000012A41D1DFF8280880ED0F0A3CE0002A1A
:1016C00003D0022A13D009D336E0DFF81808D0ED92
:1016D000030A30EEC00A81ED040A2DE0DFF80408A9
:1016E000D0ED040A30EEC00A81ED050A24E0DFF8EF
:1016F000F407D0ED050A30EEC00A81ED060A1BE0C2
:10170000DFF8E007D0ED060A70EEC00AC1ED070A67
:10171000DFF8D407D0ED000A70EEC00AC0ED000A71
:10172000D0ED010A70EEC00AC0ED010AD0ED020A48
:1017300030EEC00A80ED020A002070472DE9FE431A
:1017400004468946DFF8A4572E78304602287ADC12
:10175000A878012806D10020A870FF223021281D7A
:1017600002F018FA2A1D31462046FFF74FFC80464A
:10177000022809D12878401C2870C0B2022801DD57
:101780000020287002205FE005284ED1002028703C
:101790006870064601E0761CF6B2042E3EDA06EBCF
:1017A00046008700281DC05910F1010FF3D0002218
:1017B0000821684602F0EEF94FF000080DE0E91943
:1017C00001EB8000406800F0B7FBDDE9002303F087
:1017D000F7F8CDE9000108F101084046C0B202283F
:1017E000EDDDDDE900010022DFF8043703F0A6F9A2
:1017F000CDE9000102F0DEFA00EE100A30460246A2
:1018000049462046FFF772FE80460028C3D0FF22DB
:101810003021281D02F0BEF9404615E0FF2230219C
:10182000281D02F0B7F940460EE0042801D104203B
:101830000AE06878401C6870C0B2052801D3062011
:1018400002E0404600E00320BDE8FE83092808D9F5
:101850000A38032817D9001F01280BD9801F1BD075
:1018600023E00020DFF88C1608800320DFF88816BC
:10187000088070470020DFF87C1608800420DFF81D
:101880007816088070470020DFF86816088001206D
:10189000DFF86416088070470020DFF858160880CB
:1018A0000520DFF85416088070470020DFF8441642
:1018B0000880DFF84416088070471038032806D8DF
:1018C0000020DFF830160880DFF82C1608807047FB
:1018D0002DE9FC4104460D46DFF8206630782146AC
:1018E000884201D0002070707078002833D103F056
:1018F0006BFA03F0DFFA00284CD1274607EB4707C5
:10190000DFF8FC8508F10100C05D40F0800003F0C5
:10191000A2FA4744B87803F09EFA012003F00BFBCB
:1019200003F06EFA8DF8000003F06AFA8DF80100FA
:101930000A2003F000FB802202216846FEF731FCFA
:10194000002825D10120707034703878FFF77EFFB1
:101950000020D44908807078002842D0D1490888F6
:1019600000283ED000200880DFF8940504EB4404F2
:10197000044429462078FFF7E1FE022832D00028EF
:1019800030D004282ED0062809D00A2807D029E014
:10199000072027E0082025E00A2003F0CCFA03F016
:1019A00013FA03F087FA0028F6D1C92003F053FA9E
:1019B000A07803F050FA012003F0BDFA03F020FAFA
:1019C0008DF8000003F01CFA8DF801000A2003F0E6
:1019D000B2FA802202216846FEF7E3FB0028DBD141
:1019E000FEE70120BDE8F6815C01002040000020F8
:1019F00080B503F0E9F903F05DFA00281CD1BA20A4
:101A000003F029FAFF2003F026FA012003F093FAED
:101A100003F0F6F98DF8000003F0F2F98DF80100FB
:101A20000A2003F088FA802202216846FEF7B9FBFB
:101A3000002801D100F0D6FA0A2003F07CFAD8E79A
:101A400070B50546DFF89844B7EE000AD4ED0C0AED
:101A500030EE600A85ED080A94ED110AD4ED100A03
:101A600030EE600ADFED910A80EE800A05F184060F
:101A700086ED020AD4ED100A20EEC00A10EE100A1C
:101A800000F05AFA4FF03332DFF8783402F098FF62
:101A900002F090F9286194ED130AD4ED120A30EEA9
:101AA000600ADFED830A80EE800A86ED030AD4ED3A
:101AB000120A9FED7E1A00EEC01A85ED051A94ED0C
:101AC000150AD4ED140A30EE600ADFED7A0AC0EE92
:101AD000800AC6ED040A9FED780A94ED141AF0EE20
:101AE000401A41EE601AC5ED061AD4ED170A94EDBE
:101AF000161A70EEC10A9FED711AC1EE200AC5EDEB
:101B0000200A94ED161AF1EE041A41EE601AC5EDA2
:101B1000011AD4ED190A94ED181A70EEC10A9FED5E
:101B2000681AC1EE200AC6ED000A94ED181ADFED1E
:101B3000651A41EE601AC5ED021AD4ED1B0A94ED48
:101B40001A1A70EEC10A9FED601AC1EE200AC6EDA6
:101B5000010A94ED1A1ADFED5D1A41EE601AC5ED27
:101B6000031AD4ED000AE048B9EE0C1A71EE601ABF
:101B7000C0ED001AE4494FF07E520A60D4ED011A1C
:101B800031EEE02ADFED522A82EE822A81ED012A2F
:101B900000EEC21A80ED011AD4ED020A30EEE11A0D
:101BA0009FED4C2A82EE011A81ED021A9FED4A2A1E
:101BB00001EEC12A80ED022A94ED031A71EE601A3B
:101BC0009FED462AC2EE211AC1ED031A9FED442A69
:101BD00000EEE12A80ED032AD4ED040A70EEC11A6A
:101BE0009FED402AC2EE211AC1ED041A9FEDB22AE0
:101BF00001EE612A80ED042A94ED051A71EE601A57
:101C00009FEDAE2AC2EE211AC1ED051A9FEDAC2A56
:101C100000EEE12A80ED052AD4ED060A70EEC11A25
:101C20009FEDA82AC2EE211AC1ED061A01EE610A43
:101C300080ED060A94ED070A30EE601ADFEDA21A75
:101C400081EE811A81ED071ADFEDA01A40EEC11A6C
:101C5000C0ED071AD4ED080A70EEC00A9FED9C1A79
:101C6000C1EE200AC1ED080A9FED9A1A00EE601A33
:101C700080ED081A94ED090AD4ED0A0A70EEC00A44
:101C80009FED951AC1EE200AC1ED0A0A9FED931A45
:101C900000EE601A80ED091AC1ED090A80ED0A1AFA
:101CA00070BD000044000020C30C00200000C842AA
:101CB00000B01A4600B3714900401C460080B6438C
:101CC00000E07B450000B94300100B4700808945C8
:101CD0000000EA42000048430000DC4200802C443F
:101CE00000009B430000FA4444030020B80C00208D
:101CF00030B5BFB00022FC21684601F04BFF03F075
:101D0000A8F901E0FFF774FE00241CE02046C0B2F1
:101D1000FEF73CFA092815D079482146C9B201EBF3
:101D20004101405CFFF7C9FD002000F0FDFB694662
:101D30002046C0B2FFF7CCFD0546322003F0FBF889
:101D4000002DF4D1641C2046C0B21528DED3DBD3AD
:101D500000200BE001A9002241F82020694601EB98
:101D600080014FF07E52C1F88020401C1F28F1DB1B
:101D70006846FFF765FE9DED010A5A4880ED000AAE
:101D8000DDED020AC0ED010A9DED031A80ED021A95
:101D9000DDED041AC0ED031A9DED052A80ED042A3D
:101DA000DDED062AC0ED052A9DED083A80ED073AE3
:101DB000DDED203A5548C0ED003A9DED214A80ED19
:101DC000014A21A9D1ED014AC0ED024A91ED025A22
:101DD00080ED035AD1ED045AC0ED055A91ED036A26
:101DE00080ED046A4A4800904A4901F58C7080ED04
:101DF000000AC0ED010A80ED021AC0ED031A80ED61
:101E0000042AC0ED052A80ED073AC0ED193A80EDAD
:101E10001A4AC0ED1B4A80ED1C5A80ED1D6AC0EDC8
:101E20001E5A00200CE001EB800202F59C722E4B42
:101E300053F820301360344B53F820305366401C65
:101E40001028F0DD00200CE06A4602EB80023C32F4
:101E5000254B53F8203013602B4B53F82030D367B9
:101E6000401C1028F0DD4FF4F2722B4803F037F9D4
:101E7000002809D0002000F057FB00BF28A2002155
:101E8000084600F074FBFEE70A2003F054F8FC2239
:101E90006946224803F023F904460A2003F04BF870
:101EA000002C3FF42FAF002000F03EFB1FA20021CA
:101EB000084600F05CFBFEE700007A4400C0DA450B
:101EC00000803B4500C8AF4700BA5B490050C3479C
:101ED0004054094B002474496CF7B94D8096184B57
:101EE000400B002094030020B80A002000010020CD
:101EF000000008405401002056010020F205002097
:101F0000C00000203333D3BFFC0A0020B4030020FC
:101F10005A5AA5A5F405002000F0000800F80008B2
:101F20005361766555204572722E000053617665C7
:101F300041204572722E0000C0F3C75181B1FF29C4
:101F400006D0C110400721F0E04101F16051704717
:101F500041020CBF40F4E0016FF0004100207047E7
:101F600000F0004100020AD0B0FA80FC00FA0CF048
:101F700001F16051A1EB0C5101EBD02140057047FC
:101F80000CB430B583B00A4606A902910446002578
:101F90000194009502AB01A9084878441E3003F073
:101FA000FFF8019A157000284EBF04460198041BE3
:101FB000204603B030BC5DF80CFB00BFEF1D0000F5
:101FC000016841F00101016070476FF0010101619A
:101FD0007047006900F001007047C16841F00101DD
:101FE000C160704738B586B000221421684601F000
:101FF000D1FD002000F098FA00F0F3F901F024FA86
:1020000072B671B6042002F01FFADFF8704A206839
:1020100040F001002060206800F001000590059864
:1020200001200090002001900120029069464FF0AD
:10203000904004F08BF8206840F002002060206897
:1020400000F00200059005984020009000200190CB
:1020500001200290DFF8285A6946284604F076F8F5
:10206000206840F002002060206800F00200059027
:1020700005980820009000200190022002906946F7
:10208000284604F063F80121002004F047F94021BC
:10209000012004F043F90821012004F07EF904F046
:1020A000B7F9012004F022FA1F20DFF8D8190860E0
:1020B000212004F00FFA04F0B1F9FEE72DE9F8430E
:1020C00086B0044600221421684601F063FD00201A
:1020D0000290032003900125A540DFF8A069306835
:1020E00040F001003060306800F001000590059874
:1020F000402000902846C00900F001000190694688
:102100004FF0904004F022F84FF090474020B86222
:10211000306840F001003060306800F00100059048
:1021200005988020009005F42070401E8041C04337
:10213000C00F01906946384604F008F88020B86264
:10214000306840F001003060306800F00100059018
:1021500005980420009005F44060401E8041C04373
:10216000C00F029005F47070B0F1010868EB080828
:102170006FEA08084FEAD878CDF8048069463846F7
:1021800003F0E4FF0420B861306840F001003060E3
:10219000306800F00100059005984FF40049CDF833
:1021A0000090012001906946384603F0CFFF15F4F6
:1021B000286F02D0C7F8289001E0C7F8189030685F
:1021C00040F002003060306800F002000590059891
:1021D00040200090DFF8A8986946484603F0B6FF13
:1021E0004AF27810054203D04020C9F8180002E0F6
:1021F0004020C9F82800306840F0020030603068A4
:1022000000F00200059005980120009015F4406F41
:1022100001D0022000E000200290CDF80480694641
:10222000484603F093FF0120C9F82800306840F0C9
:1022300002003060306800F0020005900598202010
:102240000090012001906946484603F07FFF0C2C66
:1022500003D12020C9F8280002E02020C9F8180086
:10226000306840F001003060306800F001000590F7
:1022700005984FF480740094012001906946384617
:1022800003F064FF48F22010054201D0BC6100E079
:10229000BC62306840F002003060306800F002003C
:1022A0000590059808200090012001906946484655
:1022B00003F04CFF4CF20700054203D00820C9F898
:1022C000280002E00820C9F8180007B0BDE8F08334
:1022D00010B586B000221421684601F05BFCDFF8DF
:1022E0009C47206840F001002060206800F0010059
:1022F000059005980320039001200290042004908B
:102300004FF4007000900220019000200390694675
:102310004FF0904003F01AFF4FF4806000901220BD
:1023200001900020039069464FF0904003F00EFFAB
:10233000E06840F40010E060E06800F400100590F0
:102340000598DFF8C44ADFF8C40A2060DFF85C0BA8
:1023500060600020A0600120E060002020616061DA
:10236000A061E0612062204604F0D0F80021204600
:1023700004F014FC0021204604F03AFC06B010BD25
:1023800006B583B00A46FF2102910121019104A9FB
:10239000009101230146DFF8700A04F010F905B03E
:1023A00000BD1FB5FF2402940193009201230A4649
:1023B0000146DFF8540A04F0C8F91FBDF8B50A4613
:1023C000FF2102910121019103A9009101230146FE
:1023D000DFF8340A04F0B9F99DF80C0005B000BD2F
:1023E000000080B58D2200217820FFF7C9FF102260
:1023F00000217820FFF7C4FFAE2200217820BDE83D
:102400000840BDE780B58D2200217820FFF7B8FF96
:10241000142200217820FFF7B3FFAF22002178209B
:10242000BDE80840ACE70000DFF8641C0880032822
:1024300000D9704780B5DFE800F0020D1823A12213
:1024400000217820FFF79CFFC82200217820BDE8FA
:10245000084095E7A02200217820FFF791FFC822CD
:1024600000217820BDE808408AE7A12200217820D9
:10247000FFF786FFC02200217820BDE808407FE7F3
:10248000A02200217820FFF77BFFC02200217820C6
:10249000BDE8084074E701BD38B50446812200213B
:1024A0007820FFF76DFF2246D2B200217820FFF797
:1024B00067FF00BF06A4002506E014F8012B0021E9
:1024C0007820FFF75DFF6D1C142DF6D331BD0000A1
:1024D000AEA80FD552D300408D14DA02D9F1DB300B
:1024E000A4A6AF0010B50446DFF8A40B00880328AB
:1024F00001D0012800D12034A1F15002D2B2002134
:102500007820FFF73DFF2246D2B212091032D2B234
:1025100000217820FFF734FF04F00F042246002149
:102520007820BDE810402BE738B504460021084666
:10253000FFF7D8FF002505E0224640217820FFF76D
:102540001FFF6D1C2846C0B26028F5DB012100206A
:10255000FFF7C8FF002505E0224640217820FFF75D
:102560000FFF6D1C2846C0B26028F5DB31BD70B589
:102570001446FFF7B7FF08E0AA5D40217820FFF777
:10258000FFFE761C062EF7D3641C2078002809D0A5
:10259000DFF8A01B00EB400201EB4200A0F1C005F8
:1025A0000026EFE770BD2DE9F04106460C461546C2
:1025B0000CE017F8082040217820FFF7E1FE08F131
:1025C0000108B8F1100FF4D36D1C083628780028E4
:1025D00021D0DFF8381C01EB0010A0F50077214670
:1025E0003046C0B2FFF77EFF4FF0000807E017F853
:1025F000082040217820FFF7C3FE08F10108B8F158
:10260000080FF4D3611CC9B23046C0B2FFF76AFFAD
:102610004FF00808D5E7BDE8F08110B5B0B0002054
:102620002E2410E04100491CDFF80C2B125C2346DD
:1026300091FBF3F304FB1311DFF8443C595C4A406F
:1026400069460A54401CC028ECDB00210846FFF70D
:1026500049FF002406E069460A5C40217820FFF724
:102660008FFE641C2046C0B26028F4DB01210020EC
:10267000FFF738FF002408E06946084490F860201E
:1026800040217820FFF77CFE641C2046C0B2602801
:10269000F2DB30B010BD10B586B00022142101A8C5
:1026A00001F078FA00220421684601F073FADFF89D
:1026B000600B016841F400410160DFF8584BDFF81E
:1026C000400C2060002060607F20A060FF20E06060
:1026D000002020616061A061E061204604F0B0FA52
:1026E0000020ADF804008DF8060004900590024625
:1026F00001A9204604F00DFB07208DF800000320FF
:102700008DF8010018208DF8020013208DF80300C9
:1027100000226946204604F078FB06B010BD000098
:1027200078B591B0044606A82C2104F029FC0022BB
:102730001421684601F02EFA0125A540DFF8C40BEC
:1027400006904FF4807009900A2C01D1402001E0DE
:10275000DFF8B40B0A904FF440300B9000200C903F
:1027600007900D900E9015F4A07F02D004200890E1
:1027700000E0089015F4F86F06A805D004F033FCCB
:1027800006A804F0E6FC04E004F009FD06A804F045
:10279000C7FCDFF8E802016841F001010160006850
:1027A00000F00100059005980020029015F4A07F2C
:1027B00002D00320039000E003900220009048F232
:1027C0002200054201D0012000E00320019069466B
:1027D0004FF0904003F0BAFC4FF0904648F22000D2
:1027E000054202D00220B06101E00220B062102058
:1027F00000900E2004900D2C06D1DFF8D80C008834
:10280000032801D1022009E015F01C0F01D001209E
:1028100004E0680401D5002000E003200190B5F534
:10282000804F01D1022002906946304603F08EFCB1
:10283000022C02D11020B06201E01020B061012012
:1028400000900C20049015F4F86F01D0022000E0F5
:10285000032001906946304603F078FC12B070BD49
:1028600030B593B0044606A8342104F089FB002259
:10287000142101A801F08EF9012000FA04F47F4D23
:10288000286840F001002860286800F001000090EE
:1028900000980820019000200390032002900490EB
:1028A00001A94FF0904003F051FCE86840F08040EF
:1028B000E860E86800F0804000900098DFF87C0C49
:1028C00006904FF0004007900220089000200D90E5
:1028D00014F0090F01D0202000E010200C9014F01B
:1028E0000F0F01D0082004E0600401D5002000E0B3
:1028F0000C200990600401D5002001E04FF4007025
:102900000A90600402D54FF4806000E000200B9034
:102910004DF23F00044206A805D004F073FC06A85F
:1029200004F004FD04E004F01CFD06A804F0E0FC43
:1029300013B030BDF0B5A1B006460C46154601A84F
:10294000142104F01DFB0022242106A801F022F925
:102950000FA8482104F014FBDFF8E87B386940F049
:1029600000503861386900F0005000900098DFF89E
:10297000D40C0190002101A804F0F4FD386840F067
:1029800001003860386800F0010000900098DFF81E
:10299000B80C0F900FA804F033FF06201090102001
:1029A000119000201290802013904FF480701490AA
:1029B0004FF480601590202016904FF4005017902F
:1029C000002006900A9001A804F00FFD30460D2863
:1029D00033D1DFF8007B388804282EDA00200890F5
:1029E00009901420079001A804F0EAFC002206A92F
:1029F00001A804F0F9FD3888002801D002280FD181
:102A00000FA804F097FE0FA8039001A819900020CA
:102A1000009023462A46014601A804F024FD29E03F
:102A2000012827D14FF43062002101A804F0AEFF45
:102A3000002101A804F0E8FC1CE00220089001201D
:102A400009900020079001A804F0BAFC002206A912
:102A500001A804F0C9FD0A2E02D140F2DA7300E0A9
:102A600000230022114601A804F0AAFD002101A8BC
:102A700004F0CAFC21B0F0BD000000004C10024080
:102A80000004004818700040F0B5B7B000221421CF
:102A900019A801F07FF8DFF8744C1EA821466422C3
:102AA00004F0BCFF0022182101A801F073F807A868
:102AB00004F16401482204F0B1FFDFF8887A7868F5
:102AC00040F002007860786800F002000090009802
:102AD0000220199003201A9000201B9019A9DFF8FA
:102AE000300C03F033FB786840F40050786078686D
:102AF00000F4005000900098DFF8184C1E944FF43A
:102B0000E0101F90002020902190012022900820AA
:102B1000239000208DF8900001208DF89100022074
:102B2000259000208DF898002890299001208DF89C
:102B3000A8002AAD4FF480506860012028721C2044
:102B4000E8604FF480762E61002068610120A86162
:102B50001EA805F066F87F211EA805F098FC02204B
:102B600003907F20049004200590DFF8A00C0190D2
:102B70000620029001A91EA805F09AF9DFF8900C32
:102B800001900C20029001A91EA805F091F9386867
:102B900040F001003860386800F0010000900098B3
:102BA000DFF8707C07970020089009900A90802039
:102BB0000B900C964FF480600D9020200E9000201A
:102BC0000F901EA805F043F90798006840084000E0
:102BD0000799086007A804F0ADFD07A8E8611EA8E2
:102BE000119005F0F5F80798006840084000079933
:102BF000086002207860DFF8B80CF860DFF81C0D80
:102C0000B860E06840F00100E0600798006840F0BC
:102C100001000799086037B0F0BDDFF8041D0028F7
:102C2000086803D120F470600860704740F4807039
:102C30000860704700B595B005A8402104F0A0F9E0
:102C40000022102101A800F0A5FFDFF8C00C0168E8
:102C500041F400610160006800F400600090009899
:102C6000DFF8FC0C0590002006904FF6FF700890EE
:102C70000020079009900A900B9005A805F050FCE1
:102C80004FF400500190002002900390049001A99D
:102C900005A805F07AFD4FF4804105A805F005FF71
:102CA00005A805F08DFC15B000BD30B5A1B00446F7
:102CB000002214210CA800F06DFF11A8402104F09F
:102CC0005FF900221021684600F064FF00220C2109
:102CD00009A800F05FFF0022102105A800F05AFFAC
:102CE000DFF8C85C286840F001002860286800F020
:102CF00001000490049820200C90022010900020E5
:102D00000E9002200D9000200F900CA94FF09040E3
:102D100003F01CFAE86840F00100E860E86800F0A1
:102D20000100049004984FF0804011900020129010
:102D30004FF0FF30149000201390159017904FF42F
:102D40000050009000210191039121460B2904D1EC
:102D500000904FF44050029004E04FF480500090F7
:102D600000200290694611A805F00FFD002009908F
:102D70000B9009A911A805F071FE00F0F5F81C20D0
:102D800005F029FF1198006A41F2111108420BD198
:102D90001198006A40F24441084205D11198006838
:102DA000400840001199086011A805F03EFC20463B
:102DB0000B2806D111A805F0B3FB11A805F0E3FB21
:102DC00020E04FF4F8602041C0071BD5002005909B
:102DD00001200690002007900F20089011A805F010
:102DE0000BFC0C2205A911A805F07CFC042111A8FC
:102DF00005F05BFE002201211C2005F0DCFE1C20FA
:102E000005F0E8FE21B030BDB00B002000540040BA
:102E100070B598B004460D46164608A8402104F047
:102E2000AFF80022102104A800F0B4FE00220C210B
:102E300001A800F0AFFEDFF80807016841F02001AB
:102E40000160006800F0200000900098DFF8E80BB7
:102E500008900020059006904FF48050049004A93B
:102E600008A805F092FC08A805F073FB0D2C1BD1F7
:102E7000DFF87C0C0088042816DA00200A900C90F9
:102E80006D1E0995761E0B9680200E9020200190D5
:102E90000020039001A908A805F0E0FD08A805F0AE
:102EA0003FFB08A805F06FFB18B070BD5B3D30001C
:102EB000F0B58FB007460E4615461C4601A83821CE
:102EC00004F05EF80D2F35D1DFF8080600880328DE
:102ED00030D1DFF8200C016841F02001016000686A
:102EE00000F0200000900098DFF80C0C019000200A
:102EF0000290304605F080FE41EC100B05F08DFE8F
:102F000051EC100B05F096FEC0B2400203904FF654
:102F1000FF700690002009900A900B900C900D9085
:102F200001A805F0A5FE22466D1E294601A805F060
:102F3000E8FE08E001A805F001FFDFF8B80B016822
:102F400021F0200101600FB0F0BD4FF08040C1685A
:102F500041F01001C160016A41F4805101620168D1
:102F600041F00101016070474FF08040C16821F0DD
:102F70001001C160016A21F48051016201684908B1
:102F8000490001607047DFF8740B4168C9060ED52F
:102F90000168C9060BD56FF010014160406BDFF886
:102FA000601B8A68821A4A6001220A608860704742
:102FB00000B595B005A8402103F0E2FF00221021E2
:102FC00001A800F0E7FDDFF84409016841F4003191
:102FD0000160006800F4003000900098DFF8240BD6
:102FE0000590002006904FF6FF7008900020079093
:102FF00009900A900B9005A805F0FEFA00200190B8
:10300000012002900C20039000200490024601A9A8
:1030100005A805F067FB022105A805F046FD002282
:103020001146192005F0C7FD192005F0D3FD002138
:1030300005A805F017FB15B000BD30B4DFF8C80ACD
:103040004168C9070AD50168C90707D5DFF8BC1A66
:10305000CA69521CCA616FF001014160DFF8B01A01
:103060004868800712D5086880070FD58A6ADFF89C
:103070009C0A8389D31A1C46A4B241F28835AC421B
:1030800000DAC38182816FF00200486030BC704773
:10309000C00C002010B586B0DFF8A404016841F030
:1030A00010010160006800F01000009000980022FC
:1030B0001146362005F07FFD362005F08BFD0F20F0
:1030C000ADF8040000200290092003900020049035
:1030D000DFF8404A204605F06CFE01A9204605F0C5
:1030E000B4FE2046FEF779FF2046FEF769FF06B0E2
:1030F00010BD0A21B0FBF1F0002800D10120DFF85B
:10310000181A00220A600A688242FCD3704710B580
:10311000DFF8004A2046FEF75CFF012804D1DFF803
:10312000F8090168491C01602046BDE81040FEF71F
:103130004CBF00006CC4010840C9010870B50546C9
:10314000DFF8D809006842F21071B0FBF1F40121F8
:10315000284605F05FFF002C00E0641EFDD1012130
:10316000284605F043FF01284BD1DFF8B44901217F
:10317000284605F04AFF206101462078002804D047
:103180000020207048016061A061E269E0680028C9
:1031900014D1A3691846001103EBD060A1EB6010B5
:1031A000C318A3614B016361DFF878391B68A36022
:1031B000121825D560620120E06021E0666933467F
:1031C0001B1106EBD363A1EB63139A1A002A0ADDE5
:1031D000A362012801D1012060600020E0609B19FA
:1031E00063614801A061DFF83C291368A0681B1ADD
:1031F00040F2E930834203D3022060601068A0608F
:1032000021622846BDE8704005F0BCBEA8BB01089D
:1032100090100240400C002010B586B0002214210E
:1032200001A800F0B7FCDFF88407016841F0020153
:103230000160006800F002000090009800200490F7
:103240000390092005908020019012200290DFF861
:10325000C04401A9204602F079FF1020019002200D
:10326000029001A9204602F071FF002201214D20A9
:1032700005F0A1FC4D2005F0ADFC06B010BD00002E
:10328000000000201CB5AF48016841F480310160A6
:10329000006800F4803000900098DFF88C48DFF878
:1032A0008C0820600020A0624FF0805060604FF0DA
:1032B0008070A060002020620120E062C020E061F8
:1032C0004FF4C040A0610020E06001202061002098
:1032D00060616062102020638020A0630020606332
:1032E000204605F0FDFD0121204605F093FE01205A
:1032F00001F021FE2046BDE8164005F043BE000067
:1033000000280040000201407000000410B52DEDBF
:10331000048BDFF81C48208105F0BEFEDFF814287E
:10332000DFF8143800F070FC0022DFF8103801F0EC
:1033300005FC41EC180B9FEDC59BB0EE480AF0EE82
:10334000680A05F070FC53EC102B51EC190B00F0DF
:103350005BFC05F06FFC00B280104042A080B0EE34
:10336000480AF0EE680A05F05EFC53EC102B51ECB5
:10337000190B00F049FC05F05DFC00B28010E08004
:10338000BDEC048B10BD000010B52DED048B0121A8
:103390004C20FFF713F8132806D00FF2CC7200214F
:1033A0000820FFF700F9FEE7242200214C20FEF759
:1033B000E7FF052001F0BFFD002408E00FF2C47014
:1033C00001194A78015D4C20FEF7DAFFA41C0E2C8F
:1033D000F4D3DFF85C47B4F9080005F05DFEDFF8D0
:1033E0005427DFF8543700F00FFC0022DFF84C3789
:1033F00001F0A4FB41EC180B9FED949BB0EE480A42
:10340000F0EE680A05F00FFC53EC102B51EC190B91
:1034100000F0FAFB05F00EFC00B280104042A080E4
:10342000B0EE480AF0EE680A05F0FDFB53EC102BF5
:1034300051EC190B00F0E8FB05F0FCFB00B280102A
:10344000E080BDEC048B10BD10B5002408E00FF245
:10345000247001194A78015D4C20FEF791FFA41CED
:10346000102CF4D310BD000010B52DED048B0446D4
:103470009FEDA98B10E051EC190B53EC182B01F0C8
:103480005DFB53EC182B01F09BFA0022DFF8B036FD
:1034900000F0BAFB41EC180B204605F0FDFD41ECB5
:1034A000190B53EC182B51EC180B00F0ADFB53EC3F
:1034B000192B05F003FE05F0BDFB05F070FE652835
:1034C000D9DA51EC180B05F0B5FB00B2BDEC048B5A
:1034D00010BD00005601002038B5DFF86846B4F989
:1034E000082012FB02F26589A3891D432DB2002D2D
:1034F00001D16081A181638900EB430000B2032305
:1035000090FBF3F0A38901EB430109B2032391FB84
:10351000F3F10B461BB205462DB215FB05F513FB67
:1035200003536081A181934205DAD21A1046FFF756
:103530009BFFE08032BDB4F9060032BD0078004048
:1035400058100240481002402DE9F84F07460C463B
:103550001546DFF8F065B6F90800002809D10F21FB
:103560004C20FEF72BFF00F0030006EB4000808D9F
:103570003081B6F90880C146BA46504605F00FFEC4
:10358000B0EB690F3FDAA346584605F008FEB0EBF2
:10359000690F38DA4046C0100090A946484532DA33
:1035A000B9EB480F2FDAB6F90A00AAEB000005F0D4
:1035B000F6FD0099884226DAB6F90C00ABEB000064
:1035C00005F0EDFD009988421DDAB6F90400A9EB7B
:1035D0000009484605F0E3FD0099884213DA18FB1C
:1035E00008F00AFB1A0A0BFB1BAA5046FFF73CFF28
:1035F000B6F90E10401B06F114020B4622F8130018
:10360000491CF18101E00020F081B6F90E000A2882
:1036100012DB002006E006F1140232F810205118E7
:103620003182401CB6F910100A28F4DB0A2091FB05
:10363000F0F03082012030707781B481B580BDE830
:10364000F18F0000007400403000024000000000D4
:1036500000FEAF40FEB504460D4616460022062188
:10366000684600F097FA06236A4602214C20FEF7CE
:1036700098FE684641789DF8002042EA012212B285
:10368000121122809DF80310827842EA012212B2C0
:1036900012112A809DF80510007940EA012000B23D
:1036A00000113080DFF89C743878002807D1B6F913
:1036B0000020B5F90010B4F90000FFF745FFB6F996
:1036C000000005F06CFD40F60101884202DB01209C
:1036D000788201E0002078822188388D411821808D
:1036E0002988788D411829803188388A411831809D
:1036F000B7F91200002806D0B5F90010B4F900009F
:10370000FFF7EAFE30800020FEBD000000CA01087D
:103710000004004800000450000000000000F03FDA
:10372000F6B583B00446DFF82054EF8A0626384603
:103730007043284403A9324604F060F97F1CEF82ED
:10374000BFB2032F03DB0020E8820120287500228E
:103750000C21684600F01EFA6946287D002826D014
:10376000002210E006FB02F0009B2F5EDB190093A5
:103770004B68AF1C3F5EDB194B608B682F1D385EBA
:1037800018188860521C032AECDB0098032290FB77
:10379000F2F0ADF80C00486890FBF2F0ADF80E00C6
:1037A0008868114690FBF1F0ADF8100025E000228A
:1037B00011E006FB02F0009B2F5EDB1900934B68C3
:1037C000AF1C3F5EDB194B608B682F1D385E1818ED
:1037D0008860521C92B2E88A8242EADB009A92FB2D
:1037E000F0F2ADF80C204A6892FBF0F2ADF80E2032
:1037F000896891FBF0F0ADF81000204603A932462D
:1038000004F0FCF805B0F0BD00000000000021430A
:10381000000180210800024038B584B00546FF242D
:1038200001AA0DF102016846FFF714FFDDE900016E
:103830000A46014602A8FFF773FF280024D1BDF90C
:103840000000BDF90810A1F15002904202DB503196
:10385000814200DA0124BDF90200BDF90A10A1F18C
:103860005002904202DB5031814200DA0224BDF95D
:103870000400BDF90C10A1F15002904202DB50315E
:10388000814211DA04240FE0012D0DD1A849BDF9C0
:103890000A00B1F90420904201DA032404E0B1F9EE
:1038A0000610814200DA0024204605B030BD000039
:1038B000300000201CB5A54C01460901615C8DF863
:1038C0000010002801D0FF2016BD207802280ED15C
:1038D00020788DF80000E268002A06D0A168002058
:1038E00000F008F80120207001E0002020709DF811
:1038F000000016BD002807D1002905D093480123F8
:10390000037041608160C260704700006010024037
:10391000002210218D4800F03DB900004000045005
:10392000082C01400020894A16E00220107011F195
:10393000010F10D0491ED1600DE0107801280AD186
:10394000D168002907D01078012804D150680028D8
:10395000EBD0401E506001200028EED070470000E0
:10396000002C0140E0B500220821684600F012F961
:103970007748816841F001018160816801F00101AF
:1039800002910299016841F080510160006800F0E5
:103990008050029002980C20009000200190684610
:1039A00002F05CFD02F090FD07BD00004C100240EB
:1039B00010B568480068554C67490968E26901EB31
:1039C0000241584A13685B1C1360628800F09CFD3A
:1039D000A08A002810D0E08A00280DD100205F497D
:1039E0005F4B07E051F8202043F82020002241F8E7
:1039F0002020401C1428F5D3A08AE082208A401C95
:103A0000208280B2B0F57A7F01DB00202082208BFB
:103A1000401C208380B2B0F57A7F04DB0020208335
:103A2000608A401C6082206AA0EBD010E1894018B7
:103A30002062BDE8104075E70014004018B5ABB037
:103A400004460022442105A800F0A4F80022142115
:103A5000684600F09FF80022542116A800F09AF85A
:103A600002F0F6FC3F48016821F018010160002CCB
:103A700008D12020059001200E904FF400501690A0
:103A800000202690059840F01C000590012007902A
:103A90000A900B9000200C9080200D9000200F9039
:103AA00005A805F081FB0F200090002001900290F6
:103AB000039004900146684605F0C4FD169840F452
:103AC000103040F040001690002021904FF0405000
:103AD00028904FF480702A9016A805F0E9FE4FF464
:103AE000007002F0E9FB06F012F82CB010BD0000E7
:103AF000560100205C100240009400400C00004081
:103B0000A00C0020004401400C2C0140300000209B
:103B10000C44014000100040AC0C0020B005002017
:103B200054000020B00C0020FC0B0020004002409C
:103B3000800000207FBDC282FB21094000806640DA
:103B40000000E03F8C000020640C0020900C00205E
:103B50005810024024000040242C01405C01002049
:103B60004403002090100240472D73656E2045727B
:103B7000720000001140100016071700218C28F079
:103B8000200019040F00114C100216001710190024
:103B9000218F000062F30F2262F31F4200B500BFC5
:103BA000130096469446103928BFA0E80C50FAD866
:103BB0005FEA417C28BF0CC048BF40F8042BC9070E
:103BC00028BF20F8022B48BF00F8012B00BD30B4FD
:103BD000002513E050F8042BD30744BFA9F10103DB
:103BE0009A18091F042942F8045BFAD213468C077D
:103BF00044BF15809B1CC90748BF1D7050F8041BAB
:103C00000029E7D130BC7047B0B581EA030C0CF055
:103C1000004C40F2FF7515EA11541DBF15EA135709
:103C2000AC42AF4239E0E41923EA455343F4801330
:103C3000C90241F0004141EA505EC7021100A7FBF2
:103C4000020200284FF00000EEFB01204FF00001BF
:103C5000E3FB072118BF42F001024018002149414F
:103C6000E3FB0E01A4F580640F0302D25200404131
:103C7000494154F101046CDD470872F1004250F1F2
:103C8000000051EB0451A1F580115CBF41EA0C0129
:103C9000B0BD4CEA05510020B0BD05EA1357AC4257
:103CA00014BFAF4241E050EA410E1CBF52EA430E3E
:103CB00002E061460020B0BD24423C441BD15FEAD3
:103CC000070EF6D0090302BF01460020AEF1140E24
:103CD000B1FA81F7AEEB070401FA07FE0C37C7F122
:103CE000200100FA07F7C8404EEA000E23EA4553C8
:103CF00043F48013A2E733F00043B3FA83F704BF21
:103D0000B2FA82FE77440B3FE41BB7F1200E2FBFBF
:103D100002FA0EF3BB40C7F1200E22FA0EFE38BFA6
:103D200043EA0E03BA40641C82E750EA410E14BF16
:103D300052EA430E6FF000014FF4001717EB430FE8
:103D40008ABF194617EB410FB5E74CEA0551002031
:103D5000B0BDD4F10104B4F120070FDAC4F120079B
:103D6000520828BF42F0010210FA07F501FA07F7DE
:103D7000E1BF2A43E0403843E1400FE0352C98DCB6
:103D8000C7F1200452EA400220FA07F218BF42F0BD
:103D9000010231FA07F0A1400A43002172F100420A
:103DA00050F1000051EB0C01B0BD0268531C0360E0
:103DB0001170704701F000428B1AA3F16051B1F508
:103DC000801F0ADBB1F17F6F1FD242EAC102C1003E
:103DD00071F1004142EB507070470B15C3F10903BC
:103DE000212B10D2890241EA9051800201284941D9
:103DF00041F0004121FA03F0C3F12003994071F131
:103E0000004150417047100070476FF0000013EB05
:103E1000103F5CBF000E42EAC050704770B51226DA
:103E2000DFF8F84A207816FB00F02044DFF8F05A5B
:103E300081882980C1882981018929824189298332
:103E400000F10C0104F5CA7005F00AFF607816FB5A
:103E500000F0204400F170010A886A804A886A8173
:103E60008A886A82C988698300F1780104F5CF7075
:103E700005F0F6FEA07816FB00F0204400F1840166
:103E80000A88AA804A88AA818A88AA82C988A983BE
:103E900000F18C0104F5D47005F0E2FEE07816FB29
:103EA00000F6A01900F1F0010A88EA804A88EA8148
:103EB0008A88EA82C988E98300F1F80104F5D9709B
:103EC000BDE8704005F0CCBE0020DFF8581A08802D
:103ED000DFF8541A0880DFF8480A4FF0FF314163D9
:103EE000C162DFF8480AC16041607047F0EE400AE5
:103EF000062806D0C0F0C58008287BD0C0F091808D
:103F0000BFE0DFF82C0A9FED600AF4EE400AF1EE04
:103F100010FA06D590ED111A90ED000A00EE810A14
:103F200070479FED5A0AF4EE400AF1EE10FA06D5FA
:103F300090ED121A90ED010A00EE810A70479FED94
:103F4000540AF4EE400AF1EE10FA06D590ED131A79
:103F500090ED020A00EE810A70479FED4E0AF4EEE2
:103F6000400AF1EE10FA06D590ED141A90ED030A0E
:103F700000EE810A70479FED480AF4EE400AF1EE28
:103F800010FA06D590ED151A90ED040A00EE810A9C
:103F900070479FED420AF4EE400AF1EE10FA06D5A2
:103FA00090ED161A90ED050A00EE810A70479FED1C
:103FB0003C0AF4EE400AF1EE10FA06D590ED171A1D
:103FC00090ED060A00EE810A70479FED360AF4EE86
:103FD000400AF1EE10FA06D590ED181A90ED070A96
:103FE00000EE810A704790ED191A90ED080A00EE74
:103FF000810A7047DFF838099FED2B0AF4EE400A7A
:10400000F1EE10FA06D590ED1A1A90ED090A00EEBD
:10401000810A704790ED1B1A90ED0A0A00EE810AA2
:1040200070479FED1D1AF4EE410AF1EE10FA08D523
:10403000DFF8FC0890ED1C1A90ED0B0A00EE810AE7
:1040400070479FED1A1AF4EE410AF1EE10FA08D506
:10405000DFF8DC0890ED1D1A90ED0C0A00EE810AE5
:1040600070479FED131AF4EE410AF1EE10FA0AD5EB
:10407000DFF8BC0890ED1E1A90ED0D0A00EE810AE3
:1040800070479FED0C0A7047010020410100C842B3
:104090000100964301007A4401803B4501401C46E3
:1040A0000150C3470124744921BCBE4C01409C46C9
:1040B00001504347000000002DE9F0472DED048B2F
:1040C00004460D46DFF8646806EB8007D7F80080E9
:1040D00008EE908AD7F81C9044F6206AD04507D2A3
:1040E000484604F089FDFFF765FE00EE100A0DE07A
:1040F000404604F081FD02460B460020DFF83418EC
:1041000000F01CFDFFF756FE00EE100A60EE000AFC
:1041100020EE201AB9F1650F01D24FF06509204653
:104120000B2800F25581DFE810F00C000C000C00A9
:104130003E003E003E00DB001D01DB001D01A4002F
:104140008A00200002D19FEDA40A06E0012C02D1D2
:104150009FEDB30A01E09FEDB30AF8EE680A20EE86
:10416000801ADFF8D40780ED001AB06B40F6A17119
:10417000884207D240F6D2703168814205D2F16B95
:10418000814202D90020286009E097ED1C1A60EEF8
:10419000810A97ED141A00EE801A85ED001A0FF2CD
:1041A000F470686014E1032802D19FED9F9B01E049
:1041B0009FED9F9B18EE900A04F01EFD53EC192B07
:1041C000FFF722FDFFF7F6FD08EE100A204605284E
:1041D00002D19FED999B01E09FED999B18EE100A8B
:1041E000FDF7AAFE53EC192BFFF70EFD804689461A
:1041F00018EE100AFDF7A0FE02460B460020DFF87D
:104200003C1704F05BFF02460B464046494600F06F
:1042100095FCFFF7CFFD00EE100A052C03D1DFED72
:10422000B50A30EE200AD7ED1C0A97ED141A00EEFD
:10423000801A85ED001A0FF244706860C8E0DFF85C
:104240000007006804F0D8FC0022DFF8F83600F020
:1042500075FC06460F46404604F0CEFC32463B460F
:10426000FFF7D2FCFFF7A6FD28600FF21C70686014
:10427000AEE0D04503D84CF25030814507D24046DD
:1042800004F0BAFCFFF796FD08EE100A0DE0484670
:1042900004F0B2FC02460B460020DFF8981600F04E
:1042A0004DFCFFF787FD08EE100ADFF89406006862
:1042B00004F0A2FC0022DFF88C3600F03FFC06463A
:1042C0000F4618EE100AFDF737FE32463B46FFF761
:1042D0009BFCFFF76FFD28600FF2AC60686077E031
:1042E000012000E0401C08280AD2DFF85C1601EB30
:1042F0008001D1ED000AF4EE400AF1EE10FAF1DB94
:104300002146062912D1401EDFF83C1601EB80023F
:10431000D2ED000A30EE600A503101EB8000D0EDA2
:10432000000A92ED0A8A00EE208A0CE02046082856
:1043300009D1DFED710A30EE200ADFED700A9FED42
:10434000708A00EE208ADFF8F00580ED008AB0EE7A
:10435000480A2046FFF7CAFD85ED000A0FF21060FB
:10436000686035E0DFED671AB4EE610AF1EE10FA2D
:1043700001D5002000E001200FF23C6101EB80013B
:10438000D1ED001A21EE211A0FF2246101EB800118
:10439000D1ED001A00EEA11A0FF20C6101EB8001C1
:1043A000D1ED000A00EE201A0FF2F45101EB80006B
:1043B00090ED000A31EE000AD6ED1B0A30EE200A1D
:1043C0002046FFF793FD85ED000A0FF298506860D4
:1043D000BDEC048BBDE8F0870080BB3D10B5DFF875
:1043E00040158A8C134601EB83018862DFF85C4537
:1043F0004FF4F8601041C0070CD52068002807D0A2
:10440000DFF84C0502684FF47A704243120900E06D
:1044100001224A64FEF7A8FD0020206010BD0000C4
:1044200000A08C3FE9A18641000000000000C03FD1
:10443000000000000000F03F00000000006A08419A
:104440000000000000408F4070B50446DFF8D054F3
:10445000AC84FDF733FE2046FEF727FC4FF4F860EE
:104460002041C00713D5204605EB8000806ADFF8A5
:10447000E41488428041C00FFEF7CFFBDFF8D80478
:104480000068DFF8D814096800EB0140A867688C61
:10449000022802D105F1800601E0DFF8C46405EBD3
:1044A00040010B8A05F1080232F8102009882046E5
:1044B000FEF7FEFC2046FEF733F92046FEF7D0F962
:1044C0009F2200212046FEF7A3FC3246688C05EBB4
:1044D0004000018B2046FEF72DFA688C05F108019B
:1044E00031F8102035F810102046BDE87040FEF776
:1044F0008FBC000000007AC4009661C989412A413E
:10450000E09E144B00401C462DE9F84F04460D4632
:104510001646DFF80C74F96F611A4FF44870414386
:104520004FF00A08D7F87890A5EB090908FB09F9BC
:1045300040F2E73ADFF8F0B3388C002840F0018110
:10454000788C05282CD1BBF80000002805D108463E
:10455000FFF744FF4046FFF777FFBBF800000A284B
:1045600004D1B9F5FA6F01D2FEF7EFFCBBF80000F9
:10457000642800D1BD67BBF80000C82805D14846B3
:10458000FFF72CFF0B20FFF75FFFBBF80000D228DE
:1045900000D1FC67BBF80000DB2801D1ABF800A01C
:1045A000788C00282DD1BBF80000002805D13046BA
:1045B000FFF714FF0220FFF747FFBBF80000322887
:1045C00005D13046FFF70AFF0120FFF73DFFBBF89A
:1045D0000000642805D13046FFF700FF0020FFF7F8
:1045E00033FFBBF80000962805D13046FFF7F6FEF2
:1045F0000E20FFF729FFBBF80000C72801D1ABF858
:1046000000A0788C012801D0022823D1BBF800003B
:10461000002805D13046FFF7E1FE0320FFF714FF25
:10462000BBF80000322805D13046FFF7D7FE042042
:10463000FFF70AFFBBF80000642805D13046FFF7FA
:10464000CDFE0520FFF700FFBBF80000952801D143
:10465000ABF800A0788C032837D1BBF80000002805
:1046600005D14846FFF7BAFE0820FFF7EDFEBBF87C
:1046700000000A2804D1B9F5FA6F01D2FEF765FCF3
:10468000BBF80000322800D1FC67BBF80000962878
:1046900005D14846FFF7A2FE0620FFF7D5FEBBF87E
:1046A0000000A02804D1B9F5FA6F01D2FEF74DFC45
:1046B000BBF80000C82800D1BD67BBF8000040F27D
:1046C0002B11884201D1ABF800A0788C042838D196
:1046D000BBF80000002805D14846FFF77FFE072001
:1046E000FFF7B2FEBBF800000A2804D1B9F5FA6F53
:1046F00001D2FEF72AFCBBF80000642800D1BD6798
:10470000BBF80000C82805D14846FFF767FE09201E
:10471000FFF79AFEBBF80000D22804D1B9F5FA6F72
:1047200001D2FEF712FCBBF80000B0F5967F00D175
:10473000BD67BBF8000040F28F11884201D1ABF891
:1047400000A0388C012873D1BBF8000000281ED0CF
:10475000323825D032382AD032382FD00A3834D0E7
:10476000283861D0643836D00A383BD028385BD03E
:1047700064383DD00A3842D00A3855D00A3844D07F
:104780000A384BD00A384FD009384FD050E008FBD8
:1047900009F84046FFF722FE0320FFF755FE47E0E9
:1047A0003046FFF71BFE0420FFF74EFE40E0304688
:1047B000FFF714FE0520FFF747FE39E03046FFF70C
:1047C0000DFE0820FFF740FE32E0B9F5FA6F2FD258
:1047D000FEF7BBFB2CE04846FFF700FE0620FFF784
:1047E00033FE25E0B9F5FA6F22D2FEF7AEFB1FE0EB
:1047F0004846FFF7F3FD0720FFF726FE18E0B9F55E
:10480000FA6F15D2FEF7A1FB12E008FB09F840464B
:10481000FFF7E4FD0920FFF717FE09E0B9F5FA6F8D
:1048200006D2FEF792FB03E0BD6701E0ABF800A003
:10483000388C03285FD1788C002833D1BBF8000076
:1048400000280AD064380FD0643814D0643819D0E6
:1048500064381ED0633823D024E03046FFF7BEFD15
:104860000520FFF7F1FD1DE03046FFF7B7FD0420FE
:10487000FFF7EAFD16E03046FFF7B0FD0320FFF733
:10488000E3FD0FE03046FFF7A9FD0120FFF7DCFD57
:1048900008E03046FFF7A2FD0020FFF7D5FD01E05C
:1048A000ABF800A0788C012825D1BBF800000028C7
:1048B00008D064380DD064380DD0643812D0633815
:1048C00017D018E03046FFF789FD0620FFF7BCFD42
:1048D00011E0BD670FE04846FFF780FD0520FFF7B8
:1048E000B3FD08E03046FFF779FD0120FFF7ACFD8E
:1048F00001E0ABF800A0388C042805D1B88C0C2856
:1049000002D00C20FFF7A0FDBBF80000504502DBF1
:10491000012004490880BDE8F18F0000D403002085
:104920003401002044000020400000204403002007
:10493000B80A002065CDCD41B80C00200000B04081
:104940005000002000841E41ACCA0108A00C0020C9
:10495000A40C0020A0860100242C01404C00002063
:1049600078C80108754820006D48200048202000C4
:10497000704620006E462000754620005E20200014
:104980004B5E20004D5E2000487A20004B487A00A4
:104990004D487A006D562000562020004B562000CE
:1049A00052B85EBF00049FC66F1203BA48E192403E
:1049B00017B7D137FBEAAAB900000000CB1D20329F
:1049C00070B44FF0004591EA030F44F17F836B40D0
:1049D000841A71EB030604D26E40001BB141121918
:1049E00073414FF4001C1CEB410F34BF7CEB4306BA
:1049F00083E00C0DA4EB1356362E00F37C80012EC1
:104A000045EAC32341DC43EA525312BFD202920269
:104A10005B08240545EAC12141EA5051D2EBC02090
:104A2000994125D407D1B0FA80F610FA06F162D088
:104A30000020203608E0B1FA81F6B140C6F120022C
:104A400020FA02F21143B0404FEAF474B4EB46543A
:104A500034F001064FEA74040AD8D6F50016760D34
:104A600004F00044F04061FA06F25040F140484042
:104A7000C00A40EA415021F0004128BF5FEA5005DA
:104A800050F1000044EBD12135E0DB0A45EAC121B9
:104A9000C90AB6F120050EDD42EA0242120CC5F148
:104AA000200603FA06F6EB4042EA06056D429841FD
:104AB00061F100010DE062FA06F5F240554063FA3B
:104AC00006FC82EA0C02F3405A406D42904161EBD1
:104AD000030111F4801F05D1641E620502D06D0030
:104AE0004041494121F48011430875F1004350F1E0
:104AF000000041EB045170BC70471CEB410F15D214
:104B000023F0004352EA43060BD04FEA4C0CBCEBB7
:104B1000410F04D80C0D661E342EB7DDEBE7801A6A
:104B2000994150EA410608BF0021E4E708BF1CEBA9
:104B3000430F28BF6FF00001DDE70000F0B540F241
:104B4000FF7581EA030C0CF0004C15EA11541DBFEF
:104B500015EA1357AC42AF42E5E0BC41C1F3130183
:104B6000C3F31303801A994143F4801304D2641EE3
:104B70004000494180185941C90241EA5051B1FBF6
:104B8000F3F603FB1611A2FB0675D7EBC020A94173
:104B900002D2761E80185941C90241EA5051B1FB38
:104BA000F3FE03FB1E11A2FB0E75D7EBC020A9413B
:104BB00003D2AEF1010E80185941890241EA9051A9
:104BC000760546EA8E2EB1FBF3F603FB1611A2FB27
:104BD0000675D7EB8020A94102D2761E8018594174
:104BE000C90241EA50514EEA060EB1FBF3F603FB4F
:104BF0001611A2FB0675D7EBC020A94102D2761E82
:104C000080185941C90241EA5051B1FBF3F703FB47
:104C10001711A2FB0735D3EBC020A94167F10007AC
:104C20000CBF004247F0010766F3D5274FEA1E315B
:104C3000B80814F5806412DDBD0775F1004250EB31
:104C40000E5051EB045111F5801F5CBF41EA0C017D
:104C5000F0BD4CF07F6141F0E0410020F0BDBD07A8
:104C60006D0840EA0E5041F48011D4F10104B4F112
:104C700020060ADAC4F120060200E04001FA06F339
:104C8000E1401843B24015430EE0342C13DCC6F16A
:104C9000200445EA40056D0820FA06F2154321FA82
:104CA00006F0A1400D43002175F1004250F10000D3
:104CB00051EB0C01F0BD00205FEA0C01F0BDCFB953
:104CC00092185B41B3FA83F704BFB2FA82F6BF19B8
:104CD0000B3FB7F120062FBF02FA06F3BB40C7F126
:104CE000200622FA06F638BF3343BA401CB1E41955
:104CF000641E33E77F4231F00041B1FA81F404BF12
:104D0000B0FA80F6A4190B3CB4F120062FBF00FACC
:104D100006F1A140C4F1200620FA06F638BF31435F
:104D2000A0403C1B1AE7AC421ABF05EA1357AF423A
:104D300012E050EA41061CBF52EA4306BFE750EAC0
:104D40004107304661461CBF41EA0551F0BD52EAB9
:104D5000430C08BFC143F0BD00204FF4001616EB12
:104D6000410F98BF16EB430F08BF16EB410F24BF4E
:104D7000C14305E016EB430F0CBF61464CEA0551F9
:104D8000F0BD000000B585B00E48016841F001019A
:104D90000160006800F001000090009800221421DA
:104DA0006846FEF7F7FE4FF4006000900020019087
:104DB00002900320039069464FF0904001F0C6F93D
:104DC00005B000BD4C10024038B54FF0904420684B
:104DD00020F440002060206840F4800020604FF400
:104DE0000065A5624FF42F70FEF783F9A561206876
:104DF00020F4400020600A20BDE83240FEF779B977
:104E000070B5002425464FF090461DE0306820F430
:104E100040003060306840F4800030604FF4006043
:104E2000B0621420FEF765F9306820F4400030606D
:104E30001420FEF75EF93069C0F3C020A840044397
:104E40003220FEF756F96D1C2846C0B20828DDDB7B
:104E50002046C0B270BDF8B505464FF090442068BA
:104E600020F440002060206840F48000206000268C
:104E70004FF4006715E03C20FEF73BF9A7611420D2
:104E8000FEF737F90CE00120B04029460142A76245
:104E9000F1D01420FEF72DF9A7613C20FEF729F987
:104EA000761C3046C0B20828EDDB206820F44000B4
:104EB0002060F1BD38B500254FF09044206820F403
:104EC0004000206004E00A35ADB20A20FEF711F977
:104ED0002069C0F3C020002801D0C82DF3DBC82D05
:104EE00001DB012032BD002504E00A35ADB20A2005
:104EF000FEF7FFF82069C0F3C020002801D1F02D93
:104F0000F3DBF02D01DB012032BD002504E00A3582
:104F1000ADB20A20FEF7EDF82069C0F3C0200028EA
:104F200002D1B5F5FA7FF2DBB5F5FA7F01DB01209E
:104F300032BD002032BD38B5044604F09DFE054662
:104F400014F1010F00D0641C04F096FE401BA04237
:104F5000FAD331BDF8B50446042500E06D1E012DDD
:104F600024DB86484FF4F471694346180422A6F105
:104F70000801684602F042FD0098B0F1F03FEDD123
:104F80004FF4F2773A46A6F5F471204602F036FD6A
:104F90007B48012D3A4603D1774902F02FFD03E00B
:104FA000A6F5747102F02AFD0120F2BD724E4FF495
:104FB000F2752A463146204602F020FD2A46314647
:104FC0006F4802F01BFD0020F2BD6E4909684FF6E4
:104FD000FF72914202D14FF4801302E06A4B03EA60
:104FE000812303F10063984203D200F17840C00AA4
:104FF0007047914202D14FF4801202E0624A02EA05
:105000008122801A00F17840C00A70470120704761
:1050100030B585B004460022102101A8FEF7BAFD84
:105020000020009048F28000584908602046FFF7B1
:10503000CCFF05462046FFF7E9FF002101910290D1
:10504000039501200490694601A804F01BFE05B0F9
:1050500030BD002009E04E49002241F820204D4992
:105060004FF07E5241F82020401C0828F3DB00203E
:1050700009E04949002241F8202048494FF07E527A
:1050800041F82020401C1128F3DB7047401E062801
:1050900022D8DFE800F004070B0F13171C00FF20D5
:1050A000002170474FF6FF70002170476FF07F407E
:1050B000002170474FF0FF30002170474FF0FF3064
:1050C000FF2170474FF0FF304FF6FF7170474FF0F0
:1050D000FF306FF07F4170470020014670472DE997
:1050E000F0470D469046002608F1070908F007082A
:1050F000B0F1006F02D20120BDE8F08700F17840E6
:10510000C00AC00200F10060044604F0D6FE20464A
:10511000FFF77EFF374602E0083508367F1CB7EB05
:10512000D90F25D248F2800018490860404600286F
:1051300010D0781CB0EBD90F0CD14046FFF7A6FF7A
:10514000D5E9002302400B403119002004F05CFE39
:10515000824606E0D5E900233119002004F054FE10
:10516000824650460028D7D004F0B5FE5046C3E72B
:1051700004F0B1FE0020BFE794C6010800F000086B
:10518000D8070020E075FF1F00FC3F001020024000
:1051900094030020B4030020B80A0020FC0A002079
:1051A0002DE9F14FB0B0924604910DF142013A9AC7
:1051B0002B9199464A7000200AE01AF8011B0498C6
:1051C000309A90470028049000F0A8860D98401C63
:1051D0000D909AF8000050B12528EED10021002250
:1051E0000791089209910A920B910C9204E00D9894
:1051F00000F096BE41F001011AF8010F2028F9D005
:1052000023280CD02B2804D02D2805D0302809D0F5
:105210000BE041F00201EFE741F00401ECE741F05F
:105220000801E9E741F01001E6E72A280FD1D9F893
:10523000002052F8040BC9F8002000280F9003D575
:1052400040420F9041F004010AF1010A14E00F926C
:10525000DFF828380AE00F98984205DA00EB80045E
:1052600002EB4402303A0F920AF1010A9AF8002048
:10527000A2F130000A28EED39AF800002E2803D0BD
:105280004FF0FF320E9229E01AF8010F2A2809D1B7
:10529000D9F8000050F8042BC9F800000E920AF16A
:1052A000010A1BE02D280CBF0AF1010A0020002290
:1052B0000E92DFF8C8470BE040B90E9AA24205DA19
:1052C00002EB820503EB4503303B0E930AF1010A22
:1052D0009AF80030A3F130020A2AEDD3ADF840105D
:1052E000DFF89C07784400F5F3609AF8001004F0AA
:1052F0005FFE08B11AF8010B8DF842009DF84200DC
:10530000682805D19AF8000068280CD1622106E0CF
:105310006C2804BF9AF800006C2804D171218DF824
:1053200042100AF1010A12A806901AF801BBBBF15B
:1053300025012CD01C3900F0D081091F022940F230
:10534000CC81133900F01585093900F0C681891E1A
:1053500000F0AA85491E00F05785491E022940F237
:10536000BC81091F00F05085491F00F02881491EAB
:1053700000F0FF84491E00F0D080C91E0DD0891EA8
:1053800000F0F784C91E00F0F48400F098BD2523D6
:105390008DF84830012100F09DBDD9F8000050F88B
:1053A000044BC9F80000002C059440F0A3802B9911
:1053B0004878002800F099804FF0FF340FF66830ED
:1053C00004F002FE201A40F0A98500F084BD6D1E95
:1053D00040F09B853096079D12AF75B1309E17F84F
:1053E000012B02A9304600F065FE002801D46D1E95
:1053F000F5D10028309640F091850A9D3020002D8F
:105400008DF804000CDD309E012301AA02A930466C
:1054100000F060FE002840F081856D1EF4D13096CA
:10542000059F089D75B1309E17F8012B02A93046E3
:1054300000F040FE002801D46D1EF5D10028309602
:1054400040F06C850B9D3020002D8DF804000CDDA4
:10545000309E012301AA02A9304600F03BFE00283D
:1054600040F05C856D1EF4D1309605980899099D31
:10547000471875B1309E17F8012B02A9304600F08D
:1054800019FE002801D46D1EF5D10028309640F099
:1054900045850C9D3020002D8DF804000CDD309EDC
:1054A000012301AA02A9304600F014FE002840F0B2
:1054B00035856D1EF4D130969DF8400041077FF58B
:1054C00088AE2020002C8DF804007FF782AE309D3E
:1054D000012301AA02A9284600F0FCFD002840F0A3
:1054E0001D85641EF4D1309573E60FF64840059093
:1054F00000F0F1BC0E9D002D04D5204604F084FD83
:10550000044607E02A46204604F09AFD002814BF0E
:10551000041B2C46089400F0DEBCD9F8001051F8AA
:10552000040BC9F8001020F00004002121F0FF3521
:1055300012ABCDE902450593DDE9022306993C242F
:1055400013B90AB90E9898B102F00F053035641EF0
:10555000EEB23A2EA8BF2735120942EA03721B09A0
:105560000D5508BF002A03D005980D19A842EBD3AA
:1055700008190590C4F13C020E98089282420ADA9A
:10558000BDF84010821A4FF6EF7001400A92ADF854
:10559000401000F0A0BC002840F19D849DF8400020
:1055A00000F01400102840F096840F9B07990A9889
:1055B0005B1A1B1A9A1A002A40F38D84D7E32B99A1
:1055C000487820B14FF0FF340FF63830F8E69DF8F8
:1055D0004200622861D0682817D06A283FD06C2822
:1055E00006D0712847D074282CD07A281DD064E0CA
:1055F000D9F8001051F8040BC9F80010002868D140
:105600004FF0FF340FF61430DAE6D9F8001051F8F5
:10561000040BC9F8001020B94FF0FF340FF6FC203E
:10562000CEE60D99018000F056BCD9F8001051F873
:10563000040BC9F8001000284BD14FF0FF340FF6CF
:10564000DC20BDE6D9F8001051F8040BC9F80010B1
:1056500000283ED14FF0FF340FF6C020B0E6D9F855
:10566000001051F8040BC9F8001080B94FF0FF3456
:105670000FF6A820A4E6D9F8001051F8040BC9F8D9
:10568000001020B94FF0FF340FF6902098E60D9AE5
:10569000D317C0E9002300F01EBCD9F8001051F860
:1056A000040BC9F8001020B94FF0FF340FF66C203E
:1056B00086E60D99017000F00EBCD9F8001051F883
:1056C000040BC9F8001020B94FF0FF340FF64C203E
:1056D00076E60D99016000F0FEBBD9F80020D21DDE
:1056E00022F00702C9F80020D2E900010832C9F807
:1056F0000020CDE90201C80F02D007982D210AE051
:10570000BDF84000810702D507982B2103E0C007B0
:1057100005D50798202112AA1154401C0790DDE9F5
:105720000223079912A8CDE92C2308444BF020014D
:105730006129059021AC0BD00E99002902D50621D4
:105740000E9105E001BF4BF02001672901220E9266
:10575000DDE9022359004915491C0DD11A030BD06C
:10576000ABF1610503211A2D089102D20FF6C81181
:1057700010E00FF6C8110DE059004915491C0DD174
:105780001A030BD1ABF1610503211A2D089119D32E
:105790000FF6B011032202F031F99CE3DDE90201BA
:1057A000CDE92E01DDE92E2323F00047B7F5801F58
:1057B00022F000060DD20022002F08BF002E00921A
:1057C00003D116E00FF67811E4E76A4604F064FCB2
:1057D0000FE0DFF8C008DFF8C01800EB17500090AA
:1057E000DDE92E234FF0FF301940DFF8B07810408C
:1057F0003943CDE902014BF0200061280DD1059815
:1058000030210170821CBBF1610F05920CBF782121
:10581000582141700798801C0790DDE9020120F0B3
:10582000000231F0004308BF002A02D10026002503
:1058300068E14BF02008B8F1610F40F0B4800E9899
:10584000002847BF21210191401C0190019FDDE903
:105850002C017F1C00220023DDE9024504F054FCEA
:1058600000998DF8842038BF85F00045091F002F6E
:1058700000910DF1850653DD2046294600220023C4
:1058800004F05AFC4CD24800400D00F11C0212D02A
:10589000002A10DD40F2FF739A4206DBDFF80018A1
:1058A00005F000400143002011E06FF31E5141EA72
:1058B000025120460BE024F0000035F0004108BF03
:1058C00000280FBF29461C22294604F04DFC04463F
:1058D0000D4603F0AFF9FF1F002F804609DD03F0EE
:1058E000DBFB02460B462046294603F0E7FB044655
:1058F0000D46F01D0721B8F1000F0CDD491E5EBFFB
:1059000008F00F0200F8012D4FEA2818F3D502E045
:10591000002200F8012D491EFAD5C61D002FABDC70
:105920000DF18500361A01988642D8BF304600280E
:105930000DF1850430D4B04206DA0DF185010A5C20
:10594000082AA8BF0F2100DA0021024621AB134428
:1059500000E0401E13F80159521E8D42F9D00F2964
:1059600004D10DF185018B5C5B1C8B54002A04D59E
:105970000099091D21AC401C0091411E0CD46218F5
:10598000ABF13A0613783033DDB23A2DA8BFF318E5
:10599000491E02F80139F5D50E99002940F1B08071
:1059A000421E0E92ACE00099DFF8F82647F29750BD
:1059B000414391FBF2F2DDE92C45009225F00045D0
:1059C000D2F1070204DD2046294600F040FB0BE03F
:1059D00052420020DFF8D01600F039FB02460B4699
:1059E00020462946FFF7AAF80446B8F1660F0E983C
:1059F00006BF009F0A3706273F18142FC8BF142779
:105A000030200D468DF884000DF18506002F39DD1C
:105A10002046294604F046FC01460A4606F10803E2
:105A200004200A26B2FBF6F606EB860EA2EB4E0227
:105A3000303203F8012C0A22B6FBF2F202EB820E9E
:105A4000A6EB4E063036401E03F8026DE9D1083F42
:105A5000002F03F10806D9DD084603F0CDF8024611
:105A60000B462046294603F029FB0022DFF83C368E
:105A7000FEF7CAF804460D46CAE700BFCBCCCC0CF3
:105A8000F07200000DF18500361A0DF1850404E076
:105A90000098401E761E0090641C20783028F7D0B5
:105AA000B8F1660F02D10099491C04E0B8F1650F06
:105AB0000CBF012100210E9808188642B8BF701E45
:105AC00000281DD4B04204DA215C3429C8BF392132
:105AD00000DC30210246631E9D1800E0401E15F8D0
